{
  "contractName": "BlockAuthVerify",
  "abi": [
    {
      "inputs": [],
      "payable": false,
      "stateMutability": "nonpayable",
      "type": "constructor"
    },
    {
      "anonymous": false,
      "inputs": [
        {
          "indexed": false,
          "internalType": "address",
          "name": "from",
          "type": "address"
        },
        {
          "indexed": false,
          "internalType": "string",
          "name": "username",
          "type": "string"
        },
        {
          "indexed": false,
          "internalType": "bool",
          "name": "success",
          "type": "bool"
        }
      ],
      "name": "NewUserAdded",
      "type": "event"
    },
    {
      "anonymous": false,
      "inputs": [
        {
          "indexed": false,
          "internalType": "address",
          "name": "from",
          "type": "address"
        },
        {
          "indexed": false,
          "internalType": "string",
          "name": "username",
          "type": "string"
        },
        {
          "indexed": false,
          "internalType": "string",
          "name": "verificationType",
          "type": "string"
        },
        {
          "indexed": false,
          "internalType": "bool",
          "name": "success",
          "type": "bool"
        }
      ],
      "name": "NewVerification",
      "type": "event"
    },
    {
      "anonymous": false,
      "inputs": [
        {
          "indexed": false,
          "internalType": "address",
          "name": "from",
          "type": "address"
        },
        {
          "indexed": false,
          "internalType": "string",
          "name": "username",
          "type": "string"
        },
        {
          "indexed": false,
          "internalType": "bool",
          "name": "success",
          "type": "bool"
        }
      ],
      "name": "UserDataUpdated",
      "type": "event"
    },
    {
      "constant": false,
      "inputs": [],
      "name": "killBlockAuth",
      "outputs": [],
      "payable": false,
      "stateMutability": "nonpayable",
      "type": "function"
    },
    {
      "constant": false,
      "inputs": [
        {
          "internalType": "string",
          "name": "username",
          "type": "string"
        },
        {
          "internalType": "string",
          "name": "block_auth_url",
          "type": "string"
        },
        {
          "internalType": "string",
          "name": "public_key",
          "type": "string"
        }
      ],
      "name": "addNewUser",
      "outputs": [
        {
          "internalType": "bool",
          "name": "",
          "type": "bool"
        }
      ],
      "payable": false,
      "stateMutability": "nonpayable",
      "type": "function"
    },
    {
      "constant": true,
      "inputs": [
        {
          "internalType": "string",
          "name": "username",
          "type": "string"
        }
      ],
      "name": "usernameAvailable",
      "outputs": [
        {
          "internalType": "bool",
          "name": "",
          "type": "bool"
        }
      ],
      "payable": false,
      "stateMutability": "view",
      "type": "function"
    },
    {
      "constant": true,
      "inputs": [
        {
          "internalType": "address",
          "name": "user_address",
          "type": "address"
        }
      ],
      "name": "getUsername",
      "outputs": [
        {
          "internalType": "string",
          "name": "",
          "type": "string"
        }
      ],
      "payable": false,
      "stateMutability": "view",
      "type": "function"
    },
    {
      "constant": true,
      "inputs": [
        {
          "internalType": "string",
          "name": "username",
          "type": "string"
        }
      ],
      "name": "getAddress",
      "outputs": [
        {
          "internalType": "address",
          "name": "",
          "type": "address"
        }
      ],
      "payable": false,
      "stateMutability": "view",
      "type": "function"
    },
    {
      "constant": true,
      "inputs": [
        {
          "internalType": "string",
          "name": "username",
          "type": "string"
        }
      ],
      "name": "getBlockAuthUrl",
      "outputs": [
        {
          "internalType": "string",
          "name": "",
          "type": "string"
        }
      ],
      "payable": false,
      "stateMutability": "view",
      "type": "function"
    },
    {
      "constant": true,
      "inputs": [
        {
          "internalType": "string",
          "name": "username",
          "type": "string"
        }
      ],
      "name": "getBlockAuthPublicKey",
      "outputs": [
        {
          "internalType": "string",
          "name": "",
          "type": "string"
        }
      ],
      "payable": false,
      "stateMutability": "view",
      "type": "function"
    }
  ],
  "bytecode": "0x608060405234801561001057600080fd5b50600080546001600160a01b03191633179055610ca8806100326000396000f3fe608060405234801561001057600080fd5b506004361061007d5760003560e01c80639a12b1c01161005b5780639a12b1c01461025d5780639c1ff1af1461040b578063bf40fac1146104af578063ce43c0321461056f5761007d565b806313937b4f146100825780634f363d9e1461008c57806374ebaadc146101a5575b600080fd5b61008a610595565b005b610130600480360360208110156100a257600080fd5b810190602081018135600160201b8111156100bc57600080fd5b8201836020820111156100ce57600080fd5b803590602001918460018302840111600160201b831117156100ef57600080fd5b91908080601f0160208091040260200160405190810160405280939291908181526020018383808284376000920191909152509295506105b8945050505050565b6040805160208082528351818301528351919283929083019185019080838360005b8381101561016a578181015183820152602001610152565b50505050905090810190601f1680156101975780820380516001836020036101000a031916815260200191505b509250505060405180910390f35b610249600480360360208110156101bb57600080fd5b810190602081018135600160201b8111156101d557600080fd5b8201836020820111156101e757600080fd5b803590602001918460018302840111600160201b8311171561020857600080fd5b91908080601f0160208091040260200160405190810160405280939291908181526020018383808284376000920191909152509295506106ad945050505050565b604080519115158252519081900360200190f35b6102496004803603606081101561027357600080fd5b810190602081018135600160201b81111561028d57600080fd5b82018360208201111561029f57600080fd5b803590602001918460018302840111600160201b831117156102c057600080fd5b91908080601f0160208091040260200160405190810160405280939291908181526020018383808284376000920191909152509295949360208101935035915050600160201b81111561031257600080fd5b82018360208201111561032457600080fd5b803590602001918460018302840111600160201b8311171561034557600080fd5b91908080601f0160208091040260200160405190810160405280939291908181526020018383808284376000920191909152509295949360208101935035915050600160201b81111561039757600080fd5b8201836020820111156103a957600080fd5b803590602001918460018302840111600160201b831117156103ca57600080fd5b91908080601f016020809104026020016040519081016040528093929190818152602001838380828437600092019190915250929550610730945050505050565b6101306004803603602081101561042157600080fd5b810190602081018135600160201b81111561043b57600080fd5b82018360208201111561044d57600080fd5b803590602001918460018302840111600160201b8311171561046e57600080fd5b91908080601f016020809104026020016040519081016040528093929190818152602001838380828437600092019190915250929550610ac1945050505050565b610553600480360360208110156104c557600080fd5b810190602081018135600160201b8111156104df57600080fd5b8201836020820111156104f157600080fd5b803590602001918460018302840111600160201b8311171561051257600080fd5b91908080601f016020809104026020016040519081016040528093929190818152602001838380828437600092019190915250929550610af4945050505050565b604080516001600160a01b039092168252519081900360200190f35b6101306004803603602081101561058557600080fd5b50356001600160a01b0316610b65565b6000546001600160a01b03163314156105b6576000546001600160a01b0316ff5b565b60606003826040518082805190602001908083835b602083106105ec5780518252601f1990920191602091820191016105cd565b518151600019602094850361010090810a820192831692199390931691909117909252949092019687526040805197889003820188208054601f60026001831615909802909501169590950492830182900482028801820190528187529294509250508301828280156106a05780601f10610675576101008083540402835291602001916106a0565b820191906000526020600020905b81548152906001019060200180831161068357829003601f168201915b505050505090505b919050565b60006002826040518082805190602001908083835b602083106106e15780518252601f1990920191602091820191016106c2565b51815160209384036101000a60001901801990921691161790529201948552506040519384900301909220546001600160a01b0316151591506107289050575060016106a8565b5060006106a8565b60006002846040518082805190602001908083835b602083106107645780518252601f199092019160209182019101610745565b51815160209384036101000a60001901801990921691161790529201948552506040519384900301909220546001600160a01b0316151591506109f690505733600090815260016020908152604090912085516107c392870190610bd8565b50336002856040518082805190602001908083835b602083106107f75780518252601f1990920191602091820191016107d8565b51815160209384036101000a6000190180199092169116179052920194855250604051938490038101842080546001600160a01b0319166001600160a01b039690961695909517909455505085518592600392889290918291908401908083835b602083106108775780518252601f199092019160209182019101610858565b51815160209384036101000a600019018019909216911617905292019485525060405193849003810190932084516108b89591949190910192509050610bd8565b50816004856040518082805190602001908083835b602083106108ec5780518252601f1990920191602091820191016108cd565b51815160209384036101000a6000190180199092169116179052920194855250604051938490038101909320845161092d9591949190910192509050610bd8565b507fcc74ffc04fd3b512adb31019610290c2855f12d2437a8f2c7d6151cf17ad11fa3385600160405180846001600160a01b03166001600160a01b031681526020018060200183151515158152602001828103825284818151815260200191508051906020019080838360005b838110156109b257818101518382015260200161099a565b50505050905090810190601f1680156109df5780820380516001836020036101000a031916815260200191505b5094505050505060405180910390a1506001610aba565b7fcc74ffc04fd3b512adb31019610290c2855f12d2437a8f2c7d6151cf17ad11fa3385600060405180846001600160a01b03166001600160a01b031681526020018060200183151515158152602001828103825284818151815260200191508051906020019080838360005b83811015610a7a578181015183820152602001610a62565b50505050905090810190601f168015610aa75780820380516001836020036101000a031916815260200191505b5094505050505060405180910390a15060005b9392505050565b6060600482604051808280519060200190808383602083106105ec5780518252601f1990920191602091820191016105cd565b60006002826040518082805190602001908083835b60208310610b285780518252601f199092019160209182019101610b09565b51815160209384036101000a60001901801990921691161790529201948552506040519384900301909220546001600160a01b0316949350505050565b6001600160a01b03811660009081526001602081815260409283902080548451600294821615610100026000190190911693909304601f810183900483028401830190945283835260609390918301828280156106a05780601f10610675576101008083540402835291602001916106a0565b828054600181600116156101000203166002900490600052602060002090601f016020900481019282601f10610c1957805160ff1916838001178555610c46565b82800160010185558215610c46579182015b82811115610c46578251825591602001919060010190610c2b565b50610c52929150610c56565b5090565b610c7091905b80821115610c525760008155600101610c5c565b9056fea265627a7a72315820ebb9169dcff6eed37a8bbfa68284a4474ef80a6bf1ba076b2d99f2b4184a14ed64736f6c63430005100032",
  "source": "pragma solidity ^0.5.16;\r\n\r\n//Implementation of the smart contract for maintaining relevant and required data of users.\r\ncontract BlockAuthVerify {\r\n\r\n    //Variables and maps declarations\r\n    address payable owner;\r\n    mapping ( address => string ) usernames;\r\n    mapping ( string => address ) reverse_usernames;\r\n    mapping ( string => string ) block_auth_urls;\r\n    mapping ( string => string ) public_keys;\r\n\r\n    //Declaration of events. Used to identify the success of specific operations\r\n    event NewUserAdded(address from, string username, bool success);\r\n    event NewVerification(address from, string username, string verificationType, bool success);\r\n    event UserDataUpdated(address from, string username, bool success);\r\n\r\n    //Default constructor. Obtains the Ethereum address of the account invoking the smart contract and assigning to owner.\r\n    constructor() public {\r\n\r\n        owner = msg.sender;\r\n    }\r\n\r\n    //Destructor of the smart contract.\r\n    function killBlockAuth() public {\r\n\r\n        if(msg.sender == owner){\r\n            selfdestruct(owner);\r\n        }\r\n    }\r\n\r\n    /*\r\n        Method for inserting a new user to the chain. Obtains relevant information as parameters.\r\n        Registers the new user with the platform if not already registered.\r\n        Emits the NewUserAdded event to signal the status of the addNewUser operation.\r\n    */\r\n    function addNewUser(string memory username, string memory block_auth_url, string memory public_key) public returns (bool) {\r\n\r\n        if (reverse_usernames[username] == 0x0000000000000000000000000000000000000000){\r\n\r\n            usernames[msg.sender] = username;\r\n            reverse_usernames[username] = msg.sender;\r\n            block_auth_urls[username] = block_auth_url;\r\n            public_keys[username] = public_key;\r\n\r\n            emit NewUserAdded(msg.sender, username, true);\r\n            return true;\r\n        }\r\n\r\n        emit NewUserAdded(msg.sender, username, false);\r\n        return false;\r\n    }\r\n\r\n    /*\r\n        Method for determining whether a specific username is already registered in the blockchain.this\r\n        Takes the username in question as a parameter and returns boolean.\r\n    */\r\n    function usernameAvailable(string memory username) public view returns (bool) {\r\n\r\n        if (reverse_usernames[username] == 0x0000000000000000000000000000000000000000) {\r\n\r\n            return true;\r\n        }\r\n        else{\r\n            return false;\r\n        }\r\n    }\r\n\r\n    /*\r\n        Method to obtain the username associated with a specific blockchain address.\r\n        Takes the blockchain address as an input parameter and returns the username if located.\r\n    */\r\n    function getUsername(address user_address) public view returns (string memory) {\r\n        return usernames[user_address];\r\n    }\r\n\r\n    /*\r\n        Method to obtain the blockchain address associated with a specific username.\r\n        Takes the username as an input parameter and returns the ethereum address associated.\r\n    */\r\n    function getAddress(string memory username) public view returns (address) {\r\n        return reverse_usernames[username];\r\n    }\r\n\r\n    /*\r\n        Method to obtain the unique url generated for each user.\r\n        Takes the username as an input parameter and returns the url associated with that username.\r\n    */\r\n    function getBlockAuthUrl(string memory username) public view returns (string memory) {\r\n        return block_auth_urls[username];\r\n    }\r\n\r\n    /*\r\n        Method to obtain the public key associated with a specific username.\r\n        This public key refers to the public key of the RSA key pair generated for each new user.\r\n        Takes the username as an input parameter and returns the public key assocaited.\r\n    */\r\n    function getBlockAuthPublicKey(string memory username) public view returns (string memory) {\r\n        return public_keys[username];\r\n    }\r\n\r\n}",
  "sourcePath": "D:/Programming/Active_Projects/2020-117/security/CreditX-Authentication-Service/contracts/BlockAuthVerify.sol",
  "compiler": {
    "name": "solc",
    "version": "0.5.16+commit.9c3226ce.Emscripten.clang"
  },
  "schemaVersion": "3.3.1",
  "updatedAt": "2021-01-12T21:55:22.196Z",
  "networkType": "ethereum",
  "devdoc": {
    "methods": {}
  },
  "userdoc": {
    "methods": {}
  }
}