{
  "contractName": "CreditX",
  "abi": [
    {
      "inputs": [],
      "payable": false,
      "stateMutability": "nonpayable",
      "type": "constructor"
    },
    {
      "constant": true,
      "inputs": [],
      "name": "X",
      "outputs": [
        {
          "internalType": "contract External",
          "name": "",
          "type": "address"
        }
      ],
      "payable": false,
      "stateMutability": "view",
      "type": "function"
    },
    {
      "constant": true,
      "inputs": [],
      "name": "Y",
      "outputs": [
        {
          "internalType": "contract XUni",
          "name": "",
          "type": "address"
        }
      ],
      "payable": false,
      "stateMutability": "view",
      "type": "function"
    },
    {
      "constant": true,
      "inputs": [],
      "name": "adminCount",
      "outputs": [
        {
          "internalType": "uint256",
          "name": "",
          "type": "uint256"
        }
      ],
      "payable": false,
      "stateMutability": "view",
      "type": "function"
    },
    {
      "constant": true,
      "inputs": [
        {
          "internalType": "address",
          "name": "",
          "type": "address"
        }
      ],
      "name": "adminsByAddress",
      "outputs": [
        {
          "internalType": "uint256",
          "name": "_index",
          "type": "uint256"
        },
        {
          "internalType": "address",
          "name": "_address",
          "type": "address"
        },
        {
          "internalType": "string",
          "name": "_name",
          "type": "string"
        },
        {
          "internalType": "bool",
          "name": "_active",
          "type": "bool"
        }
      ],
      "payable": false,
      "stateMutability": "view",
      "type": "function"
    },
    {
      "constant": true,
      "inputs": [
        {
          "internalType": "uint256",
          "name": "",
          "type": "uint256"
        }
      ],
      "name": "adminsByIndex",
      "outputs": [
        {
          "internalType": "uint256",
          "name": "_index",
          "type": "uint256"
        },
        {
          "internalType": "address",
          "name": "_address",
          "type": "address"
        },
        {
          "internalType": "string",
          "name": "_name",
          "type": "string"
        },
        {
          "internalType": "bool",
          "name": "_active",
          "type": "bool"
        }
      ],
      "payable": false,
      "stateMutability": "view",
      "type": "function"
    },
    {
      "constant": true,
      "inputs": [],
      "name": "connect",
      "outputs": [
        {
          "internalType": "bool",
          "name": "",
          "type": "bool"
        }
      ],
      "payable": false,
      "stateMutability": "view",
      "type": "function"
    },
    {
      "constant": true,
      "inputs": [],
      "name": "moduleCount",
      "outputs": [
        {
          "internalType": "uint256",
          "name": "",
          "type": "uint256"
        }
      ],
      "payable": false,
      "stateMutability": "view",
      "type": "function"
    },
    {
      "constant": true,
      "inputs": [
        {
          "internalType": "string",
          "name": "",
          "type": "string"
        }
      ],
      "name": "modulesByCode",
      "outputs": [
        {
          "internalType": "uint256",
          "name": "_index",
          "type": "uint256"
        },
        {
          "internalType": "string",
          "name": "_code",
          "type": "string"
        },
        {
          "internalType": "string",
          "name": "_name",
          "type": "string"
        },
        {
          "internalType": "uint8",
          "name": "_credits",
          "type": "uint8"
        },
        {
          "internalType": "bool",
          "name": "_active",
          "type": "bool"
        },
        {
          "internalType": "bool",
          "name": "_graded",
          "type": "bool"
        },
        {
          "internalType": "uint256",
          "name": "_obtainedCredits",
          "type": "uint256"
        }
      ],
      "payable": false,
      "stateMutability": "view",
      "type": "function"
    },
    {
      "constant": true,
      "inputs": [
        {
          "internalType": "uint256",
          "name": "",
          "type": "uint256"
        }
      ],
      "name": "modulesByIndex",
      "outputs": [
        {
          "internalType": "uint256",
          "name": "_index",
          "type": "uint256"
        },
        {
          "internalType": "string",
          "name": "_code",
          "type": "string"
        },
        {
          "internalType": "string",
          "name": "_name",
          "type": "string"
        },
        {
          "internalType": "uint8",
          "name": "_credits",
          "type": "uint8"
        },
        {
          "internalType": "bool",
          "name": "_active",
          "type": "bool"
        },
        {
          "internalType": "bool",
          "name": "_graded",
          "type": "bool"
        },
        {
          "internalType": "uint256",
          "name": "_obtainedCredits",
          "type": "uint256"
        }
      ],
      "payable": false,
      "stateMutability": "view",
      "type": "function"
    },
    {
      "constant": true,
      "inputs": [],
      "name": "studentCount",
      "outputs": [
        {
          "internalType": "uint256",
          "name": "",
          "type": "uint256"
        }
      ],
      "payable": false,
      "stateMutability": "view",
      "type": "function"
    },
    {
      "constant": true,
      "inputs": [
        {
          "internalType": "address",
          "name": "",
          "type": "address"
        },
        {
          "internalType": "uint256",
          "name": "",
          "type": "uint256"
        }
      ],
      "name": "studentEnrolledModules",
      "outputs": [
        {
          "internalType": "uint256",
          "name": "_index",
          "type": "uint256"
        },
        {
          "internalType": "string",
          "name": "_code",
          "type": "string"
        },
        {
          "internalType": "string",
          "name": "_name",
          "type": "string"
        },
        {
          "internalType": "uint8",
          "name": "_credits",
          "type": "uint8"
        },
        {
          "internalType": "bool",
          "name": "_active",
          "type": "bool"
        },
        {
          "internalType": "bool",
          "name": "_graded",
          "type": "bool"
        },
        {
          "internalType": "uint256",
          "name": "_obtainedCredits",
          "type": "uint256"
        }
      ],
      "payable": false,
      "stateMutability": "view",
      "type": "function"
    },
    {
      "constant": true,
      "inputs": [
        {
          "internalType": "address",
          "name": "",
          "type": "address"
        }
      ],
      "name": "studentEnrolledModulesCount",
      "outputs": [
        {
          "internalType": "uint256",
          "name": "",
          "type": "uint256"
        }
      ],
      "payable": false,
      "stateMutability": "view",
      "type": "function"
    },
    {
      "constant": true,
      "inputs": [
        {
          "internalType": "address",
          "name": "",
          "type": "address"
        }
      ],
      "name": "studentsByAddress",
      "outputs": [
        {
          "internalType": "uint256",
          "name": "_index",
          "type": "uint256"
        },
        {
          "internalType": "string",
          "name": "_id",
          "type": "string"
        },
        {
          "internalType": "address",
          "name": "_address",
          "type": "address"
        },
        {
          "internalType": "string",
          "name": "_name",
          "type": "string"
        },
        {
          "internalType": "bool",
          "name": "_active",
          "type": "bool"
        },
        {
          "internalType": "bool",
          "name": "_transfer",
          "type": "bool"
        }
      ],
      "payable": false,
      "stateMutability": "view",
      "type": "function"
    },
    {
      "constant": true,
      "inputs": [
        {
          "internalType": "string",
          "name": "",
          "type": "string"
        }
      ],
      "name": "studentsById",
      "outputs": [
        {
          "internalType": "uint256",
          "name": "_index",
          "type": "uint256"
        },
        {
          "internalType": "string",
          "name": "_id",
          "type": "string"
        },
        {
          "internalType": "address",
          "name": "_address",
          "type": "address"
        },
        {
          "internalType": "string",
          "name": "_name",
          "type": "string"
        },
        {
          "internalType": "bool",
          "name": "_active",
          "type": "bool"
        },
        {
          "internalType": "bool",
          "name": "_transfer",
          "type": "bool"
        }
      ],
      "payable": false,
      "stateMutability": "view",
      "type": "function"
    },
    {
      "constant": true,
      "inputs": [
        {
          "internalType": "uint256",
          "name": "",
          "type": "uint256"
        }
      ],
      "name": "studentsByIndex",
      "outputs": [
        {
          "internalType": "uint256",
          "name": "_index",
          "type": "uint256"
        },
        {
          "internalType": "string",
          "name": "_id",
          "type": "string"
        },
        {
          "internalType": "address",
          "name": "_address",
          "type": "address"
        },
        {
          "internalType": "string",
          "name": "_name",
          "type": "string"
        },
        {
          "internalType": "bool",
          "name": "_active",
          "type": "bool"
        },
        {
          "internalType": "bool",
          "name": "_transfer",
          "type": "bool"
        }
      ],
      "payable": false,
      "stateMutability": "view",
      "type": "function"
    },
    {
      "constant": true,
      "inputs": [
        {
          "internalType": "address",
          "name": "",
          "type": "address"
        }
      ],
      "name": "studentsCreditsCount",
      "outputs": [
        {
          "internalType": "uint256",
          "name": "",
          "type": "uint256"
        }
      ],
      "payable": false,
      "stateMutability": "view",
      "type": "function"
    },
    {
      "constant": false,
      "inputs": [
        {
          "internalType": "address",
          "name": "_address",
          "type": "address"
        }
      ],
      "name": "initializeExternal",
      "outputs": [],
      "payable": false,
      "stateMutability": "nonpayable",
      "type": "function"
    },
    {
      "constant": false,
      "inputs": [
        {
          "internalType": "address",
          "name": "_address",
          "type": "address"
        }
      ],
      "name": "initializeXUni",
      "outputs": [],
      "payable": false,
      "stateMutability": "nonpayable",
      "type": "function"
    },
    {
      "constant": true,
      "inputs": [
        {
          "internalType": "address",
          "name": "_address",
          "type": "address"
        }
      ],
      "name": "isAdminActive",
      "outputs": [
        {
          "internalType": "bool",
          "name": "",
          "type": "bool"
        }
      ],
      "payable": false,
      "stateMutability": "view",
      "type": "function"
    },
    {
      "constant": true,
      "inputs": [
        {
          "internalType": "address",
          "name": "_address",
          "type": "address"
        }
      ],
      "name": "isStudentActive",
      "outputs": [
        {
          "internalType": "bool",
          "name": "",
          "type": "bool"
        }
      ],
      "payable": false,
      "stateMutability": "view",
      "type": "function"
    },
    {
      "constant": true,
      "inputs": [
        {
          "internalType": "address",
          "name": "_address",
          "type": "address"
        },
        {
          "internalType": "string",
          "name": "_code",
          "type": "string"
        },
        {
          "internalType": "uint256",
          "name": "_stRqIndex",
          "type": "uint256"
        }
      ],
      "name": "getStudentsCredits",
      "outputs": [
        {
          "internalType": "uint256",
          "name": "",
          "type": "uint256"
        },
        {
          "internalType": "string",
          "name": "",
          "type": "string"
        },
        {
          "internalType": "string",
          "name": "",
          "type": "string"
        },
        {
          "internalType": "uint8",
          "name": "",
          "type": "uint8"
        },
        {
          "internalType": "bool",
          "name": "",
          "type": "bool"
        },
        {
          "internalType": "bool",
          "name": "",
          "type": "bool"
        },
        {
          "internalType": "uint256",
          "name": "",
          "type": "uint256"
        }
      ],
      "payable": false,
      "stateMutability": "view",
      "type": "function"
    },
    {
      "constant": true,
      "inputs": [
        {
          "internalType": "address",
          "name": "_address",
          "type": "address"
        },
        {
          "internalType": "uint256",
          "name": "_stRqIndex",
          "type": "uint256"
        }
      ],
      "name": "getTotalStudentsCredits",
      "outputs": [
        {
          "internalType": "uint256",
          "name": "",
          "type": "uint256"
        }
      ],
      "payable": false,
      "stateMutability": "view",
      "type": "function"
    },
    {
      "constant": false,
      "inputs": [
        {
          "internalType": "address",
          "name": "_address",
          "type": "address"
        },
        {
          "internalType": "string",
          "name": "_name",
          "type": "string"
        }
      ],
      "name": "addAdmin",
      "outputs": [],
      "payable": false,
      "stateMutability": "nonpayable",
      "type": "function"
    },
    {
      "constant": false,
      "inputs": [
        {
          "internalType": "string",
          "name": "_id",
          "type": "string"
        },
        {
          "internalType": "string",
          "name": "_name",
          "type": "string"
        },
        {
          "internalType": "address",
          "name": "_address",
          "type": "address"
        },
        {
          "internalType": "bool",
          "name": "_active",
          "type": "bool"
        },
        {
          "internalType": "bool",
          "name": "_transfer",
          "type": "bool"
        },
        {
          "internalType": "uint256",
          "name": "_creditCount",
          "type": "uint256"
        }
      ],
      "name": "addStudent",
      "outputs": [],
      "payable": false,
      "stateMutability": "nonpayable",
      "type": "function"
    },
    {
      "constant": false,
      "inputs": [
        {
          "internalType": "string",
          "name": "_code",
          "type": "string"
        },
        {
          "internalType": "string",
          "name": "_name",
          "type": "string"
        },
        {
          "internalType": "uint8",
          "name": "_credits",
          "type": "uint8"
        }
      ],
      "name": "addModule",
      "outputs": [],
      "payable": false,
      "stateMutability": "nonpayable",
      "type": "function"
    },
    {
      "constant": false,
      "inputs": [
        {
          "internalType": "address",
          "name": "_address",
          "type": "address"
        },
        {
          "internalType": "string",
          "name": "_code",
          "type": "string"
        },
        {
          "internalType": "uint256",
          "name": "_marks",
          "type": "uint256"
        }
      ],
      "name": "setCredits",
      "outputs": [],
      "payable": false,
      "stateMutability": "nonpayable",
      "type": "function"
    },
    {
      "constant": false,
      "inputs": [
        {
          "internalType": "address",
          "name": "_address",
          "type": "address"
        },
        {
          "internalType": "string",
          "name": "_code",
          "type": "string"
        }
      ],
      "name": "enrollStudent",
      "outputs": [],
      "payable": false,
      "stateMutability": "nonpayable",
      "type": "function"
    }
  ],
  "bytecode": "0x608060405260018060146101000a81548160ff0219169083151502179055506000600255600060065560006009553480156200003a57600080fd5b50620000456200024d565b604051806080016040528060065481526020013373ffffffffffffffffffffffffffffffffffffffff1681526020016040518060400160405280600b81526020017f53555045525f41444d494e000000000000000000000000000000000000000000815250815260200160011515815250905080600760003373ffffffffffffffffffffffffffffffffffffffff1673ffffffffffffffffffffffffffffffffffffffff1681526020019081526020016000206000820151816000015560208201518160010160006101000a81548173ffffffffffffffffffffffffffffffffffffffff021916908373ffffffffffffffffffffffffffffffffffffffff1602179055506040820151816002019080519060200190620001679291906200028d565b5060608201518160030160006101000a81548160ff021916908315150217905550905050806008600060065481526020019081526020016000206000820151816000015560208201518160010160006101000a81548173ffffffffffffffffffffffffffffffffffffffff021916908373ffffffffffffffffffffffffffffffffffffffff1602179055506040820151816002019080519060200190620002109291906200028d565b5060608201518160030160006101000a81548160ff021916908315150217905550905050600660008154809291906001019190505550506200033c565b604051806080016040528060008152602001600073ffffffffffffffffffffffffffffffffffffffff168152602001606081526020016000151581525090565b828054600181600116156101000203166002900490600052602060002090601f016020900481019282601f10620002d057805160ff191683800117855562000301565b8280016001018555821562000301579182015b8281111562000300578251825591602001919060010190620002e3565b5b50905062000310919062000314565b5090565b6200033991905b80821115620003355760008160009055506001016200031b565b5090565b90565b615ea9806200034c6000396000f3fe608060405234801561001057600080fd5b50600436106101a95760003560e01c806382760a3d116100f9578063b800450c11610097578063e581f9ee11610071578063e581f9ee146114b4578063f55c4d57146114d2578063f5801529146115b7578063fae903ad146115fb576101a9565b8063b800450c1461134b578063c1599bd91461138f578063d16856ca146113d9576101a9565b8063948cb719116100d3578063948cb7191461106c5780639bed97fa1461108e5780639d0fb71e146111ed578063ab485995146112ef576101a9565b806382760a3d14610d38578063861c98a914610f285780638da5e2e214610f80576101a9565b806355080f72116101665780636134b72a116101405780636134b72a1461071c5780636c0755101461091757806373cc104814610a7b5780637a7861af14610bf4576101a9565b806355080f72146103c3578063591752ed146105575780635a1cd78a146106ba576101a9565b8063095f7b89146101ae578063261d822f1461020a5780632b7832b3146102e55780632dfb8ea614610303578063334f7ac51461035b57806345b3fe4214610379575b600080fd5b6101f0600480360360208110156101c457600080fd5b81019080803573ffffffffffffffffffffffffffffffffffffffff1690602001909291905050506117cc565b604051808215151515815260200191505060405180910390f35b6102e36004803603604081101561022057600080fd5b81019080803573ffffffffffffffffffffffffffffffffffffffff1690602001909291908035906020019064010000000081111561025d57600080fd5b82018360208201111561026f57600080fd5b8035906020019184600183028401116401000000008311171561029157600080fd5b91908080601f016020809104026020016040519081016040528093929190818152602001838380828437600081840152601f19601f820116905080830192505050505050509192919290505050611825565b005b6102ed6121cd565b6040518082815260200191505060405180910390f35b6103456004803603602081101561031957600080fd5b81019080803573ffffffffffffffffffffffffffffffffffffffff1690602001909291905050506121d3565b6040518082815260200191505060405180910390f35b6103636121eb565b6040518082815260200191505060405180910390f35b6103816121f1565b604051808273ffffffffffffffffffffffffffffffffffffffff1673ffffffffffffffffffffffffffffffffffffffff16815260200191505060405180910390f35b610555600480360360c08110156103d957600080fd5b81019080803590602001906401000000008111156103f657600080fd5b82018360208201111561040857600080fd5b8035906020019184600183028401116401000000008311171561042a57600080fd5b91908080601f016020809104026020016040519081016040528093929190818152602001838380828437600081840152601f19601f8201169050808301925050505050505091929192908035906020019064010000000081111561048d57600080fd5b82018360208201111561049f57600080fd5b803590602001918460018302840111640100000000831117156104c157600080fd5b91908080601f016020809104026020016040519081016040528093929190818152602001838380828437600081840152601f19601f820116905080830192505050505050509192919290803573ffffffffffffffffffffffffffffffffffffffff16906020019092919080351515906020019092919080351515906020019092919080359060200190929190505050612217565b005b6105836004803603602081101561056d57600080fd5b8101908080359060200190929190505050612b98565b60405180878152602001806020018673ffffffffffffffffffffffffffffffffffffffff1673ffffffffffffffffffffffffffffffffffffffff168152602001806020018515151515815260200184151515158152602001838103835288818151815260200191508051906020019080838360005b838110156106135780820151818401526020810190506105f8565b50505050905090810190601f1680156106405780820380516001836020036101000a031916815260200191505b50838103825286818151815260200191508051906020019080838360005b8381101561067957808201518184015260208101905061065e565b50505050905090810190601f1680156106a65780820380516001836020036101000a031916815260200191505b509850505050505050505060405180910390f35b610706600480360360408110156106d057600080fd5b81019080803573ffffffffffffffffffffffffffffffffffffffff16906020019092919080359060200190929190505050612d3e565b6040518082815260200191505060405180910390f35b6107ff6004803603606081101561073257600080fd5b81019080803573ffffffffffffffffffffffffffffffffffffffff1690602001909291908035906020019064010000000081111561076f57600080fd5b82018360208201111561078157600080fd5b803590602001918460018302840111640100000000831117156107a357600080fd5b91908080601f016020809104026020016040519081016040528093929190818152602001838380828437600081840152601f19601f820116905080830192505050505050509192919290803590602001909291905050506130a1565b6040518088815260200180602001806020018760ff1660ff1681526020018615151515815260200185151515158152602001848152602001838103835289818151815260200191508051906020019080838360005b8381101561086f578082015181840152602081019050610854565b50505050905090810190601f16801561089c5780820380516001836020036101000a031916815260200191505b50838103825288818151815260200191508051906020019080838360005b838110156108d55780820151818401526020810190506108ba565b50505050905090810190601f1680156109025780820380516001836020036101000a031916815260200191505b50995050505050505050505060405180910390f35b6109636004803603604081101561092d57600080fd5b81019080803573ffffffffffffffffffffffffffffffffffffffff16906020019092919080359060200190929190505050613670565b6040518088815260200180602001806020018760ff1660ff1681526020018615151515815260200185151515158152602001848152602001838103835289818151815260200191508051906020019080838360005b838110156109d35780820151818401526020810190506109b8565b50505050905090810190601f168015610a005780820380516001836020036101000a031916815260200191505b50838103825288818151815260200191508051906020019080838360005b83811015610a39578082015181840152602081019050610a1e565b50505050905090810190601f168015610a665780820380516001836020036101000a031916815260200191505b50995050505050505050505060405180910390f35b610abd60048036036020811015610a9157600080fd5b81019080803573ffffffffffffffffffffffffffffffffffffffff169060200190929190505050613823565b60405180878152602001806020018673ffffffffffffffffffffffffffffffffffffffff1673ffffffffffffffffffffffffffffffffffffffff168152602001806020018515151515815260200184151515158152602001838103835288818151815260200191508051906020019080838360005b83811015610b4d578082015181840152602081019050610b32565b50505050905090810190601f168015610b7a5780820380516001836020036101000a031916815260200191505b50838103825286818151815260200191508051906020019080838360005b83811015610bb3578082015181840152602081019050610b98565b50505050905090810190601f168015610be05780820380516001836020036101000a031916815260200191505b509850505050505050505060405180910390f35b610c2060048036036020811015610c0a57600080fd5b81019080803590602001909291905050506139c9565b6040518088815260200180602001806020018760ff1660ff1681526020018615151515815260200185151515158152602001848152602001838103835289818151815260200191508051906020019080838360005b83811015610c90578082015181840152602081019050610c75565b50505050905090810190601f168015610cbd5780820380516001836020036101000a031916815260200191505b50838103825288818151815260200191508051906020019080838360005b83811015610cf6578082015181840152602081019050610cdb565b50505050905090810190601f168015610d235780820380516001836020036101000a031916815260200191505b50995050505050505050505060405180910390f35b610df160048036036020811015610d4e57600080fd5b8101908080359060200190640100000000811115610d6b57600080fd5b820183602082011115610d7d57600080fd5b80359060200191846001830284011164010000000083111715610d9f57600080fd5b91908080601f016020809104026020016040519081016040528093929190818152602001838380828437600081840152601f19601f820116905080830192505050505050509192919290505050613b62565b60405180878152602001806020018673ffffffffffffffffffffffffffffffffffffffff1673ffffffffffffffffffffffffffffffffffffffff168152602001806020018515151515815260200184151515158152602001838103835288818151815260200191508051906020019080838360005b83811015610e81578082015181840152602081019050610e66565b50505050905090810190601f168015610eae5780820380516001836020036101000a031916815260200191505b50838103825286818151815260200191508051906020019080838360005b83811015610ee7578082015181840152602081019050610ecc565b50505050905090810190601f168015610f145780820380516001836020036101000a031916815260200191505b509850505050505050505060405180910390f35b610f6a60048036036020811015610f3e57600080fd5b81019080803573ffffffffffffffffffffffffffffffffffffffff169060200190929190505050613d1e565b6040518082815260200191505060405180910390f35b610fac60048036036020811015610f9657600080fd5b8101908080359060200190929190505050613d36565b604051808581526020018473ffffffffffffffffffffffffffffffffffffffff1673ffffffffffffffffffffffffffffffffffffffff1681526020018060200183151515158152602001828103825284818151815260200191508051906020019080838360005b8381101561102e578082015181840152602081019050611013565b50505050905090810190601f16801561105b5780820380516001836020036101000a031916815260200191505b509550505050505060405180910390f35b611074613e2b565b604051808215151515815260200191505060405180910390f35b6111eb600480360360608110156110a457600080fd5b81019080803590602001906401000000008111156110c157600080fd5b8201836020820111156110d357600080fd5b803590602001918460018302840111640100000000831117156110f557600080fd5b91908080601f016020809104026020016040519081016040528093929190818152602001838380828437600081840152601f19601f8201169050808301925050505050505091929192908035906020019064010000000081111561115857600080fd5b82018360208201111561116a57600080fd5b8035906020019184600183028401116401000000008311171561118c57600080fd5b91908080601f016020809104026020016040519081016040528093929190818152602001838380828437600081840152601f19601f820116905080830192505050505050509192919290803560ff169060200190929190505050613e3e565b005b61122f6004803603602081101561120357600080fd5b81019080803573ffffffffffffffffffffffffffffffffffffffff169060200190929190505050614264565b604051808581526020018473ffffffffffffffffffffffffffffffffffffffff1673ffffffffffffffffffffffffffffffffffffffff1681526020018060200183151515158152602001828103825284818151815260200191508051906020019080838360005b838110156112b1578082015181840152602081019050611296565b50505050905090810190601f1680156112de5780820380516001836020036101000a031916815260200191505b509550505050505060405180910390f35b6113316004803603602081101561130557600080fd5b81019080803573ffffffffffffffffffffffffffffffffffffffff169060200190929190505050614359565b604051808215151515815260200191505060405180910390f35b61138d6004803603602081101561136157600080fd5b81019080803573ffffffffffffffffffffffffffffffffffffffff1690602001909291905050506143b2565b005b6113976143f5565b604051808273ffffffffffffffffffffffffffffffffffffffff1673ffffffffffffffffffffffffffffffffffffffff16815260200191505060405180910390f35b6114b2600480360360408110156113ef57600080fd5b81019080803573ffffffffffffffffffffffffffffffffffffffff1690602001909291908035906020019064010000000081111561142c57600080fd5b82018360208201111561143e57600080fd5b8035906020019184600183028401116401000000008311171561146057600080fd5b91908080601f016020809104026020016040519081016040528093929190818152602001838380828437600081840152601f19601f82011690508083019250505050505050919291929050505061441a565b005b6114bc614a5e565b6040518082815260200191505060405180910390f35b6115b5600480360360608110156114e857600080fd5b81019080803573ffffffffffffffffffffffffffffffffffffffff1690602001909291908035906020019064010000000081111561152557600080fd5b82018360208201111561153757600080fd5b8035906020019184600183028401116401000000008311171561155957600080fd5b91908080601f016020809104026020016040519081016040528093929190818152602001838380828437600081840152601f19601f82011690508083019250505050505050919291929080359060200190929190505050614a64565b005b6115f9600480360360208110156115cd57600080fd5b81019080803573ffffffffffffffffffffffffffffffffffffffff1690602001909291905050506152bb565b005b6116b46004803603602081101561161157600080fd5b810190808035906020019064010000000081111561162e57600080fd5b82018360208201111561164057600080fd5b8035906020019184600183028401116401000000008311171561166257600080fd5b91908080601f016020809104026020016040519081016040528093929190818152602001838380828437600081840152601f19601f8201169050808301925050505050505091929192905050506152ff565b6040518088815260200180602001806020018760ff1660ff1681526020018615151515815260200185151515158152602001848152602001838103835289818151815260200191508051906020019080838360005b83811015611724578082015181840152602081019050611709565b50505050905090810190601f1680156117515780820380516001836020036101000a031916815260200191505b50838103825288818151815260200191508051906020019080838360005b8381101561178a57808201518184015260208101905061176f565b50505050905090810190601f1680156117b75780820380516001836020036101000a031916815260200191505b50995050505050505050505060405180910390f35b6000600360008373ffffffffffffffffffffffffffffffffffffffff1673ffffffffffffffffffffffffffffffffffffffff16815260200190815260200160002060040160009054906101000a900460ff169050919050565b600760003373ffffffffffffffffffffffffffffffffffffffff1673ffffffffffffffffffffffffffffffffffffffff16815260200190815260200160002060030160009054906101000a900460ff166118e7576040517f08c379a00000000000000000000000000000000000000000000000000000000081526004018080602001828103825260188152602001807f4f6e6c792041646d696e2063616e2063616c6c2074686973000000000000000081525060200191505060405180910390fd5b600a816040518082805190602001908083835b6020831061191d57805182526020820191506020810190506020830392506118fa565b6001836020036101000a038019825116818451168082178552505050505050905001915050908152602001604051809103902060030160019054906101000a900460ff166119d3576040517f08c379a00000000000000000000000000000000000000000000000000000000081526004018080602001828103825260158152602001807f4d6f64756c6520646f6573206e6f74206578697374000000000000000000000081525060200191505060405180910390fd5b600360008373ffffffffffffffffffffffffffffffffffffffff1673ffffffffffffffffffffffffffffffffffffffff16815260200190815260200160002060040160009054906101000a900460ff16611a95576040517f08c379a00000000000000000000000000000000000000000000000000000000081526004018080602001828103825260168152602001807f53747564656e7420646f6573206e6f742065786973740000000000000000000081525060200191505060405180910390fd5b611cde600f60008473ffffffffffffffffffffffffffffffffffffffff1673ffffffffffffffffffffffffffffffffffffffff168152602001908152602001600020805480602002602001604051908101604052809291908181526020016000905b82821015611cd457838290600052602060002090600502016040518060e001604052908160008201548152602001600182018054600181600116156101000203166002900480601f016020809104026020016040519081016040528092919081815260200182805460018160011615610100020316600290048015611bbd5780601f10611b9257610100808354040283529160200191611bbd565b820191906000526020600020905b815481529060010190602001808311611ba057829003601f168201915b50505050508152602001600282018054600181600116156101000203166002900480601f016020809104026020016040519081016040528092919081815260200182805460018160011615610100020316600290048015611c5f5780601f10611c3457610100808354040283529160200191611c5f565b820191906000526020600020905b815481529060010190602001808311611c4257829003601f168201915b505050505081526020016003820160009054906101000a900460ff1660ff1660ff1681526020016003820160019054906101000a900460ff161515151581526020016003820160029054906101000a900460ff1615151515815260200160048201548152505081526020019060010190611af7565b50505050826154ae565b15611d34576040517f08c379a000000000000000000000000000000000000000000000000000000000815260040180806020018281038252602a815260200180615e03602a913960400191505060405180910390fd5b600f60008373ffffffffffffffffffffffffffffffffffffffff1673ffffffffffffffffffffffffffffffffffffffff168152602001908152602001600020600a826040518082805190602001908083835b60208310611da95780518252602082019150602081019050602083039250611d86565b6001836020036101000a0380198251168184511680821785525050505050509050019150509081526020016040518091039020908060018154018082558091505090600182039060005260206000209060050201600090919290919091506000820154816000015560018201816001019080546001816001161561010002031660029004611e38929190615c02565b5060028201816002019080546001816001161561010002031660029004611e60929190615c02565b506003820160009054906101000a900460ff168160030160006101000a81548160ff021916908360ff1602179055506003820160019054906101000a900460ff168160030160016101000a81548160ff0219169083151502179055506003820160029054906101000a900460ff168160030160026101000a81548160ff02191690831515021790555060048201548160040155505050600f60008373ffffffffffffffffffffffffffffffffffffffff1673ffffffffffffffffffffffffffffffffffffffff16815260200190815260200160002080549050601060008473ffffffffffffffffffffffffffffffffffffffff1673ffffffffffffffffffffffffffffffffffffffff16815260200190815260200160002081905550600a816040518082805190602001908083835b60208310611fb25780518252602082019150602081019050602083039250611f8f565b6001836020036101000a0380198251168184511680821785525050505050509050019150509081526020016040518091039020600c60008473ffffffffffffffffffffffffffffffffffffffff1673ffffffffffffffffffffffffffffffffffffffff168152602001908152602001600020826040518082805190602001908083835b602083106120585780518252602082019150602081019050602083039250612035565b6001836020036101000a038019825116818451168082178552505050505050905001915050908152602001604051809103902060008201548160000155600182018160010190805460018160011615610100020316600290046120bc929190615c02565b50600282018160020190805460018160011615610100020316600290046120e4929190615c02565b506003820160009054906101000a900460ff168160030160006101000a81548160ff021916908360ff1602179055506003820160019054906101000a900460ff168160030160016101000a81548160ff0219169083151502179055506003820160029054906101000a900460ff168160030160026101000a81548160ff02191690831515021790555060048201548160040155905050600d60008373ffffffffffffffffffffffffffffffffffffffff1673ffffffffffffffffffffffffffffffffffffffff168152602001908152602001600020600081548092919060010191905055505050565b60065481565b600d6020528060005260406000206000915090505481565b60095481565b600160009054906101000a900473ffffffffffffffffffffffffffffffffffffffff1681565b600760003373ffffffffffffffffffffffffffffffffffffffff1673ffffffffffffffffffffffffffffffffffffffff16815260200190815260200160002060030160009054906101000a900460ff166122d9576040517f08c379a00000000000000000000000000000000000000000000000000000000081526004018080602001828103825260188152602001807f4f6e6c792041646d696e2063616e2063616c6c2074686973000000000000000081525060200191505060405180910390fd5b83600760008273ffffffffffffffffffffffffffffffffffffffff1673ffffffffffffffffffffffffffffffffffffffff16815260200190815260200160002060030160009054906101000a900460ff1615612380576040517f08c379a0000000000000000000000000000000000000000000000000000000008152600401808060200182810382526022815260200180615e2d6022913960400191505060405180910390fd5b600360008273ffffffffffffffffffffffffffffffffffffffff1673ffffffffffffffffffffffffffffffffffffffff16815260200190815260200160002060040160009054906101000a900460ff1615612426576040517f08c379a0000000000000000000000000000000000000000000000000000000008152600401808060200182810382526022815260200180615e2d6022913960400191505060405180910390fd5b6000809054906101000a900473ffffffffffffffffffffffffffffffffffffffff1673ffffffffffffffffffffffffffffffffffffffff1663c7e899b5826040518263ffffffff1660e01b8152600401808273ffffffffffffffffffffffffffffffffffffffff1673ffffffffffffffffffffffffffffffffffffffff16815260200191505060206040518083038186803b1580156124c457600080fd5b505afa1580156124d8573d6000803e3d6000fd5b505050506040513d60208110156124ee57600080fd5b810190808051906020019092919050505015612555576040517f08c379a0000000000000000000000000000000000000000000000000000000008152600401808060200182810382526022815260200180615e2d6022913960400191505060405180910390fd5b600160009054906101000a900473ffffffffffffffffffffffffffffffffffffffff1673ffffffffffffffffffffffffffffffffffffffff1663f291c3e0826040518263ffffffff1660e01b8152600401808273ffffffffffffffffffffffffffffffffffffffff1673ffffffffffffffffffffffffffffffffffffffff16815260200191505060206040518083038186803b1580156125f457600080fd5b505afa158015612608573d6000803e3d6000fd5b505050506040513d602081101561261e57600080fd5b810190808051906020019092919050505015612685576040517f08c379a0000000000000000000000000000000000000000000000000000000008152600401808060200182810382526022815260200180615e2d6022913960400191505060405180910390fd5b6004876040518082805190602001908083835b602083106126bb5780518252602082019150602081019050602083039250612698565b6001836020036101000a038019825116818451168082178552505050505050905001915050908152602001604051809103902060040160009054906101000a900460ff1615612772576040517f08c379a000000000000000000000000000000000000000000000000000000000815260040180806020018281038252601d8152602001807f50726f766964656420494420697320616c726561647920696e2075736500000081525060200191505060405180910390fd5b61277a615c89565b6040518060c0016040528060025481526020018981526020018773ffffffffffffffffffffffffffffffffffffffff1681526020018881526020018615158152602001851515815250905080600360008873ffffffffffffffffffffffffffffffffffffffff1673ffffffffffffffffffffffffffffffffffffffff16815260200190815260200160002060008201518160000155602082015181600101908051906020019061282b929190615cd9565b5060408201518160020160006101000a81548173ffffffffffffffffffffffffffffffffffffffff021916908373ffffffffffffffffffffffffffffffffffffffff160217905550606082015181600301908051906020019061288f929190615cd9565b5060808201518160040160006101000a81548160ff02191690831515021790555060a08201518160040160016101000a81548160ff021916908315150217905550905050806004896040518082805190602001908083835b6020831061290a57805182526020820191506020810190506020830392506128e7565b6001836020036101000a0380198251168184511680821785525050505050509050019150509081526020016040518091039020600082015181600001556020820151816001019080519060200190612963929190615cd9565b5060408201518160020160006101000a81548173ffffffffffffffffffffffffffffffffffffffff021916908373ffffffffffffffffffffffffffffffffffffffff16021790555060608201518160030190805190602001906129c7929190615cd9565b5060808201518160040160006101000a81548160ff02191690831515021790555060a08201518160040160016101000a81548160ff02191690831515021790555090505080600560006002548152602001908152602001600020600082015181600001556020820151816001019080519060200190612a47929190615cd9565b5060408201518160020160006101000a81548173ffffffffffffffffffffffffffffffffffffffff021916908373ffffffffffffffffffffffffffffffffffffffff1602179055506060820151816003019080519060200190612aab929190615cd9565b5060808201518160040160006101000a81548160ff02191690831515021790555060a08201518160040160016101000a81548160ff0219169083151502179055509050506000600d60008873ffffffffffffffffffffffffffffffffffffffff1673ffffffffffffffffffffffffffffffffffffffff168152602001908152602001600020819055506103e88302600e60008873ffffffffffffffffffffffffffffffffffffffff1673ffffffffffffffffffffffffffffffffffffffff168152602001908152602001600020819055506002600081548092919060010191905055505050505050505050565b6005602052806000526040600020600091509050806000015490806001018054600181600116156101000203166002900480601f016020809104026020016040519081016040528092919081815260200182805460018160011615610100020316600290048015612c4a5780601f10612c1f57610100808354040283529160200191612c4a565b820191906000526020600020905b815481529060010190602001808311612c2d57829003601f168201915b5050505050908060020160009054906101000a900473ffffffffffffffffffffffffffffffffffffffff1690806003018054600181600116156101000203166002900480601f016020809104026020016040519081016040528092919081815260200182805460018160011615610100020316600290048015612d0e5780601f10612ce357610100808354040283529160200191612d0e565b820191906000526020600020905b815481529060010190602001808311612cf157829003601f168201915b5050505050908060040160009054906101000a900460ff16908060040160019054906101000a900460ff16905086565b6000600760003373ffffffffffffffffffffffffffffffffffffffff1673ffffffffffffffffffffffffffffffffffffffff16815260200190815260200160002060030160009054906101000a900460ff1680612e1e5750600360003373ffffffffffffffffffffffffffffffffffffffff1673ffffffffffffffffffffffffffffffffffffffff16815260200190815260200160002060040160009054906101000a900460ff168015612e1d57503373ffffffffffffffffffffffffffffffffffffffff168373ffffffffffffffffffffffffffffffffffffffff16145b5b80612fe757506000809054906101000a900473ffffffffffffffffffffffffffffffffffffffff1673ffffffffffffffffffffffffffffffffffffffff1663c7e899b5336040518263ffffffff1660e01b8152600401808273ffffffffffffffffffffffffffffffffffffffff1673ffffffffffffffffffffffffffffffffffffffff16815260200191505060206040518083038186803b158015612ec257600080fd5b505afa158015612ed6573d6000803e3d6000fd5b505050506040513d6020811015612eec57600080fd5b81019080805190602001909291905050508015612fe657506000809054906101000a900473ffffffffffffffffffffffffffffffffffffffff1673ffffffffffffffffffffffffffffffffffffffff16635653b3dc33846040518363ffffffff1660e01b8152600401808373ffffffffffffffffffffffffffffffffffffffff1673ffffffffffffffffffffffffffffffffffffffff1681526020018281526020019250505060206040518083038186803b158015612faa57600080fd5b505afa158015612fbe573d6000803e3d6000fd5b505050506040513d6020811015612fd457600080fd5b81019080805190602001909291905050505b5b613059576040517f08c379a000000000000000000000000000000000000000000000000000000000815260040180806020018281038252600e8152602001807f4e6f7420417574686f72697a656400000000000000000000000000000000000081525060200191505060405180910390fd5b600e60008473ffffffffffffffffffffffffffffffffffffffff1673ffffffffffffffffffffffffffffffffffffffff16815260200190815260200160002054905092915050565b6000606080600080600080600760003373ffffffffffffffffffffffffffffffffffffffff1673ffffffffffffffffffffffffffffffffffffffff16815260200190815260200160002060030160009054906101000a900460ff168061318a5750600360003373ffffffffffffffffffffffffffffffffffffffff1673ffffffffffffffffffffffffffffffffffffffff16815260200190815260200160002060040160009054906101000a900460ff16801561318957503373ffffffffffffffffffffffffffffffffffffffff168a73ffffffffffffffffffffffffffffffffffffffff16145b5b8061335357506000809054906101000a900473ffffffffffffffffffffffffffffffffffffffff1673ffffffffffffffffffffffffffffffffffffffff1663c7e899b5336040518263ffffffff1660e01b8152600401808273ffffffffffffffffffffffffffffffffffffffff1673ffffffffffffffffffffffffffffffffffffffff16815260200191505060206040518083038186803b15801561322e57600080fd5b505afa158015613242573d6000803e3d6000fd5b505050506040513d602081101561325857600080fd5b8101908080519060200190929190505050801561335257506000809054906101000a900473ffffffffffffffffffffffffffffffffffffffff1673ffffffffffffffffffffffffffffffffffffffff16635653b3dc338a6040518363ffffffff1660e01b8152600401808373ffffffffffffffffffffffffffffffffffffffff1673ffffffffffffffffffffffffffffffffffffffff1681526020018281526020019250505060206040518083038186803b15801561331657600080fd5b505afa15801561332a573d6000803e3d6000fd5b505050506040513d602081101561334057600080fd5b81019080805190602001909291905050505b5b6133c5576040517f08c379a000000000000000000000000000000000000000000000000000000000815260040180806020018281038252600e8152602001807f4e6f7420417574686f72697a656400000000000000000000000000000000000081525060200191505060405180910390fd5b6133cd615d59565b600c60008c73ffffffffffffffffffffffffffffffffffffffff1673ffffffffffffffffffffffffffffffffffffffff1681526020019081526020016000208a6040518082805190602001908083835b60208310613440578051825260208201915060208101905060208303925061341d565b6001836020036101000a03801982511681845116808217855250505050505090500191505090815260200160405180910390206040518060e001604052908160008201548152602001600182018054600181600116156101000203166002900480601f0160208091040260200160405190810160405280929190818152602001828054600181600116156101000203166002900480156135215780601f106134f657610100808354040283529160200191613521565b820191906000526020600020905b81548152906001019060200180831161350457829003601f168201915b50505050508152602001600282018054600181600116156101000203166002900480601f0160208091040260200160405190810160405280929190818152602001828054600181600116156101000203166002900480156135c35780601f10613598576101008083540402835291602001916135c3565b820191906000526020600020905b8154815290600101906020018083116135a657829003601f168201915b505050505081526020016003820160009054906101000a900460ff1660ff1660ff1681526020016003820160019054906101000a900460ff161515151581526020016003820160029054906101000a900460ff161515151581526020016004820154815250509050806000015181602001518260400151836060015184608001518560a001518660c001518595508494509750975097509750975097509750509397509397509397909450565b600f602052816000526040600020818154811061368957fe5b906000526020600020906005020160009150915050806000015490806001018054600181600116156101000203166002900480601f01602080910402602001604051908101604052809291908181526020018280546001816001161561010002031660029004801561373c5780601f106137115761010080835404028352916020019161373c565b820191906000526020600020905b81548152906001019060200180831161371f57829003601f168201915b505050505090806002018054600181600116156101000203166002900480601f0160208091040260200160405190810160405280929190818152602001828054600181600116156101000203166002900480156137da5780601f106137af576101008083540402835291602001916137da565b820191906000526020600020905b8154815290600101906020018083116137bd57829003601f168201915b5050505050908060030160009054906101000a900460ff16908060030160019054906101000a900460ff16908060030160029054906101000a900460ff16908060040154905087565b6003602052806000526040600020600091509050806000015490806001018054600181600116156101000203166002900480601f0160208091040260200160405190810160405280929190818152602001828054600181600116156101000203166002900480156138d55780601f106138aa576101008083540402835291602001916138d5565b820191906000526020600020905b8154815290600101906020018083116138b857829003601f168201915b5050505050908060020160009054906101000a900473ffffffffffffffffffffffffffffffffffffffff1690806003018054600181600116156101000203166002900480601f0160208091040260200160405190810160405280929190818152602001828054600181600116156101000203166002900480156139995780601f1061396e57610100808354040283529160200191613999565b820191906000526020600020905b81548152906001019060200180831161397c57829003601f168201915b5050505050908060040160009054906101000a900460ff16908060040160019054906101000a900460ff16905086565b600b602052806000526040600020600091509050806000015490806001018054600181600116156101000203166002900480601f016020809104026020016040519081016040528092919081815260200182805460018160011615610100020316600290048015613a7b5780601f10613a5057610100808354040283529160200191613a7b565b820191906000526020600020905b815481529060010190602001808311613a5e57829003601f168201915b505050505090806002018054600181600116156101000203166002900480601f016020809104026020016040519081016040528092919081815260200182805460018160011615610100020316600290048015613b195780601f10613aee57610100808354040283529160200191613b19565b820191906000526020600020905b815481529060010190602001808311613afc57829003601f168201915b5050505050908060030160009054906101000a900460ff16908060030160019054906101000a900460ff16908060030160029054906101000a900460ff16908060040154905087565b600481805160208101820180518482526020830160208501208183528095505050505050600091509050806000015490806001018054600181600116156101000203166002900480601f016020809104026020016040519081016040528092919081815260200182805460018160011615610100020316600290048015613c2a5780601f10613bff57610100808354040283529160200191613c2a565b820191906000526020600020905b815481529060010190602001808311613c0d57829003601f168201915b5050505050908060020160009054906101000a900473ffffffffffffffffffffffffffffffffffffffff1690806003018054600181600116156101000203166002900480601f016020809104026020016040519081016040528092919081815260200182805460018160011615610100020316600290048015613cee5780601f10613cc357610100808354040283529160200191613cee565b820191906000526020600020905b815481529060010190602001808311613cd157829003601f168201915b5050505050908060040160009054906101000a900460ff16908060040160019054906101000a900460ff16905086565b60106020528060005260406000206000915090505481565b60086020528060005260406000206000915090508060000154908060010160009054906101000a900473ffffffffffffffffffffffffffffffffffffffff1690806002018054600181600116156101000203166002900480601f016020809104026020016040519081016040528092919081815260200182805460018160011615610100020316600290048015613e0e5780601f10613de357610100808354040283529160200191613e0e565b820191906000526020600020905b815481529060010190602001808311613df157829003601f168201915b5050505050908060030160009054906101000a900460ff16905084565b600160149054906101000a900460ff1681565b600760003373ffffffffffffffffffffffffffffffffffffffff1673ffffffffffffffffffffffffffffffffffffffff16815260200190815260200160002060030160009054906101000a900460ff16613f00576040517f08c379a00000000000000000000000000000000000000000000000000000000081526004018080602001828103825260188152602001807f4f6e6c792041646d696e2063616e2063616c6c2074686973000000000000000081525060200191505060405180910390fd5b600a836040518082805190602001908083835b60208310613f365780518252602082019150602081019050602083039250613f13565b6001836020036101000a038019825116818451168082178552505050505050905001915050908152602001604051809103902060030160019054906101000a900460ff1615613fed576040517f08c379a000000000000000000000000000000000000000000000000000000000815260040180806020018281038252601d8152602001807f4d6f64756c6520636f646520697320616c726561647920696e2075736500000081525060200191505060405180910390fd5b6040518060e0016040528060095481526020018481526020018381526020018260ff1681526020016001151581526020016000151581526020016000815250600a846040518082805190602001908083835b60208310614062578051825260208201915060208101905060208303925061403f565b6001836020036101000a03801982511681845116808217855250505050505090500191505090815260200160405180910390206000820151816000015560208201518160010190805190602001906140bb929190615cd9565b5060408201518160020190805190602001906140d8929190615cd9565b5060608201518160030160006101000a81548160ff021916908360ff16021790555060808201518160030160016101000a81548160ff02191690831515021790555060a08201518160030160026101000a81548160ff02191690831515021790555060c082015181600401559050506040518060e0016040528060095481526020018481526020018381526020018260ff1681526020016001151581526020016000151581526020016000815250600b600060095481526020019081526020016000206000820151816000015560208201518160010190805190602001906141c1929190615cd9565b5060408201518160020190805190602001906141de929190615cd9565b5060608201518160030160006101000a81548160ff021916908360ff16021790555060808201518160030160016101000a81548160ff02191690831515021790555060a08201518160030160026101000a81548160ff02191690831515021790555060c08201518160040155905050600960008154809291906001019190505550505050565b60076020528060005260406000206000915090508060000154908060010160009054906101000a900473ffffffffffffffffffffffffffffffffffffffff1690806002018054600181600116156101000203166002900480601f01602080910402602001604051908101604052809291908181526020018280546001816001161561010002031660029004801561433c5780601f106143115761010080835404028352916020019161433c565b820191906000526020600020905b81548152906001019060200180831161431f57829003601f168201915b5050505050908060030160009054906101000a900460ff16905084565b6000600760008373ffffffffffffffffffffffffffffffffffffffff1673ffffffffffffffffffffffffffffffffffffffff16815260200190815260200160002060030160009054906101000a900460ff169050919050565b806000806101000a81548173ffffffffffffffffffffffffffffffffffffffff021916908373ffffffffffffffffffffffffffffffffffffffff16021790555050565b6000809054906101000a900473ffffffffffffffffffffffffffffffffffffffff1681565b600760003373ffffffffffffffffffffffffffffffffffffffff1673ffffffffffffffffffffffffffffffffffffffff16815260200190815260200160002060030160009054906101000a900460ff166144dc576040517f08c379a00000000000000000000000000000000000000000000000000000000081526004018080602001828103825260188152602001807f4f6e6c792041646d696e2063616e2063616c6c2074686973000000000000000081525060200191505060405180910390fd5b81600760008273ffffffffffffffffffffffffffffffffffffffff1673ffffffffffffffffffffffffffffffffffffffff16815260200190815260200160002060030160009054906101000a900460ff1615614583576040517f08c379a0000000000000000000000000000000000000000000000000000000008152600401808060200182810382526022815260200180615e2d6022913960400191505060405180910390fd5b600360008273ffffffffffffffffffffffffffffffffffffffff1673ffffffffffffffffffffffffffffffffffffffff16815260200190815260200160002060040160009054906101000a900460ff1615614629576040517f08c379a0000000000000000000000000000000000000000000000000000000008152600401808060200182810382526022815260200180615e2d6022913960400191505060405180910390fd5b6000809054906101000a900473ffffffffffffffffffffffffffffffffffffffff1673ffffffffffffffffffffffffffffffffffffffff1663c7e899b5826040518263ffffffff1660e01b8152600401808273ffffffffffffffffffffffffffffffffffffffff1673ffffffffffffffffffffffffffffffffffffffff16815260200191505060206040518083038186803b1580156146c757600080fd5b505afa1580156146db573d6000803e3d6000fd5b505050506040513d60208110156146f157600080fd5b810190808051906020019092919050505015614758576040517f08c379a0000000000000000000000000000000000000000000000000000000008152600401808060200182810382526022815260200180615e2d6022913960400191505060405180910390fd5b600160009054906101000a900473ffffffffffffffffffffffffffffffffffffffff1673ffffffffffffffffffffffffffffffffffffffff1663f291c3e0826040518263ffffffff1660e01b8152600401808273ffffffffffffffffffffffffffffffffffffffff1673ffffffffffffffffffffffffffffffffffffffff16815260200191505060206040518083038186803b1580156147f757600080fd5b505afa15801561480b573d6000803e3d6000fd5b505050506040513d602081101561482157600080fd5b810190808051906020019092919050505015614888576040517f08c379a0000000000000000000000000000000000000000000000000000000008152600401808060200182810382526022815260200180615e2d6022913960400191505060405180910390fd5b614890615d9d565b604051806080016040528060065481526020018573ffffffffffffffffffffffffffffffffffffffff16815260200184815260200160011515815250905080600760008673ffffffffffffffffffffffffffffffffffffffff1673ffffffffffffffffffffffffffffffffffffffff1681526020019081526020016000206000820151816000015560208201518160010160006101000a81548173ffffffffffffffffffffffffffffffffffffffff021916908373ffffffffffffffffffffffffffffffffffffffff160217905550604082015181600201908051906020019061497b929190615cd9565b5060608201518160030160006101000a81548160ff021916908315150217905550905050806008600060065481526020019081526020016000206000820151816000015560208201518160010160006101000a81548173ffffffffffffffffffffffffffffffffffffffff021916908373ffffffffffffffffffffffffffffffffffffffff1602179055506040820151816002019080519060200190614a22929190615cd9565b5060608201518160030160006101000a81548160ff02191690831515021790555090505060066000815480929190600101919050555050505050565b60025481565b600760003373ffffffffffffffffffffffffffffffffffffffff1673ffffffffffffffffffffffffffffffffffffffff16815260200190815260200160002060030160009054906101000a900460ff16614b26576040517f08c379a00000000000000000000000000000000000000000000000000000000081526004018080602001828103825260188152602001807f4f6e6c792041646d696e2063616e2063616c6c2074686973000000000000000081525060200191505060405180910390fd5b600a826040518082805190602001908083835b60208310614b5c5780518252602082019150602081019050602083039250614b39565b6001836020036101000a038019825116818451168082178552505050505050905001915050908152602001604051809103902060030160019054906101000a900460ff16614c12576040517f08c379a00000000000000000000000000000000000000000000000000000000081526004018080602001828103825260158152602001807f4d6f64756c6520646f6573206e6f74206578697374000000000000000000000081525060200191505060405180910390fd5b614e5b600f60008573ffffffffffffffffffffffffffffffffffffffff1673ffffffffffffffffffffffffffffffffffffffff168152602001908152602001600020805480602002602001604051908101604052809291908181526020016000905b82821015614e5157838290600052602060002090600502016040518060e001604052908160008201548152602001600182018054600181600116156101000203166002900480601f016020809104026020016040519081016040528092919081815260200182805460018160011615610100020316600290048015614d3a5780601f10614d0f57610100808354040283529160200191614d3a565b820191906000526020600020905b815481529060010190602001808311614d1d57829003601f168201915b50505050508152602001600282018054600181600116156101000203166002900480601f016020809104026020016040519081016040528092919081815260200182805460018160011615610100020316600290048015614ddc5780601f10614db157610100808354040283529160200191614ddc565b820191906000526020600020905b815481529060010190602001808311614dbf57829003601f168201915b505050505081526020016003820160009054906101000a900460ff1660ff1660ff1681526020016003820160019054906101000a900460ff161515151581526020016003820160029054906101000a900460ff1615151515815260200160048201548152505081526020019060010190614c74565b50505050836154ae565b614eb0576040517f08c379a0000000000000000000000000000000000000000000000000000000008152600401808060200182810382526026815260200180615e4f6026913960400191505060405180910390fd5b6003614ebb82615508565b1115614f2f576040517f08c379a00000000000000000000000000000000000000000000000000000000081526004018080602001828103825260138152602001807f496e76616c6964206d61726b7320696e7075740000000000000000000000000081525060200191505060405180910390fd5b6000614f43614f3d8361553b565b846156e1565b9050600c60008573ffffffffffffffffffffffffffffffffffffffff1673ffffffffffffffffffffffffffffffffffffffff168152602001908152602001600020836040518082805190602001908083835b60208310614fb85780518252602082019150602081019050602083039250614f95565b6001836020036101000a038019825116818451168082178552505050505050905001915050908152602001604051809103902060030160029054906101000a900460ff16156150f857600c60008573ffffffffffffffffffffffffffffffffffffffff1673ffffffffffffffffffffffffffffffffffffffff168152602001908152602001600020836040518082805190602001908083835b602083106150745780518252602082019150602081019050602083039250615051565b6001836020036101000a038019825116818451168082178552505050505050905001915050908152602001604051809103902060040154600e60008673ffffffffffffffffffffffffffffffffffffffff1673ffffffffffffffffffffffffffffffffffffffff168152602001908152602001600020600082825403925050819055505b80600c60008673ffffffffffffffffffffffffffffffffffffffff1673ffffffffffffffffffffffffffffffffffffffff168152602001908152602001600020846040518082805190602001908083835b6020831061516c5780518252602082019150602081019050602083039250615149565b6001836020036101000a0380198251168184511680821785525050505050509050019150509081526020016040518091039020600401819055506001600c60008673ffffffffffffffffffffffffffffffffffffffff1673ffffffffffffffffffffffffffffffffffffffff168152602001908152602001600020846040518082805190602001908083835b6020831061521b57805182526020820191506020810190506020830392506151f8565b6001836020036101000a038019825116818451168082178552505050505050905001915050908152602001604051809103902060030160026101000a81548160ff02191690831515021790555080600e60008673ffffffffffffffffffffffffffffffffffffffff1673ffffffffffffffffffffffffffffffffffffffff1681526020019081526020016000206000828254019250508190555050505050565b80600160006101000a81548173ffffffffffffffffffffffffffffffffffffffff021916908373ffffffffffffffffffffffffffffffffffffffff16021790555050565b600a81805160208101820180518482526020830160208501208183528095505050505050600091509050806000015490806001018054600181600116156101000203166002900480601f0160208091040260200160405190810160405280929190818152602001828054600181600116156101000203166002900480156153c75780601f1061539c576101008083540402835291602001916153c7565b820191906000526020600020905b8154815290600101906020018083116153aa57829003601f168201915b505050505090806002018054600181600116156101000203166002900480601f0160208091040260200160405190810160405280929190818152602001828054600181600116156101000203166002900480156154655780601f1061543a57610100808354040283529160200191615465565b820191906000526020600020905b81548152906001019060200180831161544857829003601f168201915b5050505050908060030160009054906101000a900460ff16908060030160019054906101000a900460ff16908060030160029054906101000a900460ff16908060040154905087565b600080600090505b83518110156154fc576154e08482815181106154ce57fe5b60200260200101516020015184615be7565b156154ef576001915050615502565b80806001019150506154b6565b50600090505b92915050565b600080600090505b6000831461553257600a838161552257fe5b0492508080600101915050615510565b80915050919050565b60006064821115615581576005600a838161555257fe5b061061557257600a828161556257fe5b0491508180600101925050615580565b600a828161557c57fe5b0491505b5b606482111580156155935750605a8210155b156155a157600090506156dc565b605a821080156155b2575060508210155b156155c057600190506156dc565b6050821080156155d15750604b8210155b156155df57600290506156dc565b604b821080156155f0575060468210155b156155fe57600390506156dc565b60468210801561560f575060418210155b1561561d57600490506156dc565b60418210801561562e5750603c8210155b1561563c57600590506156dc565b603c8210801561564d575060378210155b1561565b57600690506156dc565b60378210801561566c5750602d8210155b1561567a57600790506156dc565b602d8210801561568b575060288210155b1561569957600890506156dc565b6028821080156156aa575060238210155b156156b857600990506156dc565b6023821080156156c95750601e8210155b156156d757600a90506156dc565b600b90505b919050565b60006156eb615d59565b600a836040518082805190602001908083835b6020831061572157805182526020820191506020810190506020830392506156fe565b6001836020036101000a03801982511681845116808217855250505050505090500191505090815260200160405180910390206040518060e001604052908160008201548152602001600182018054600181600116156101000203166002900480601f0160208091040260200160405190810160405280929190818152602001828054600181600116156101000203166002900480156158025780601f106157d757610100808354040283529160200191615802565b820191906000526020600020905b8154815290600101906020018083116157e557829003601f168201915b50505050508152602001600282018054600181600116156101000203166002900480601f0160208091040260200160405190810160405280929190818152602001828054600181600116156101000203166002900480156158a45780601f10615879576101008083540402835291602001916158a4565b820191906000526020600020905b81548152906001019060200180831161588757829003601f168201915b505050505081526020016003820160009054906101000a900460ff1660ff1660ff1681526020016003820160019054906101000a900460ff161515151581526020016003820160029054906101000a900460ff1615151515815260200160048201548152505090508060800151615983576040517f08c379a00000000000000000000000000000000000000000000000000000000081526004018080602001828103825260158152602001807f4d6f64756c6520646f7365206e6f74206578697374000000000000000000000081525060200191505060405180910390fd5b6000600b81111561599057fe5b84600b81111561599c57fe5b14156159ba57806060015160ff166103e80261ffff16915050615be1565b6001600b8111156159c757fe5b84600b8111156159d357fe5b14156159f157806060015160ff166103e80261ffff16915050615be1565b6002600b8111156159fe57fe5b84600b811115615a0a57fe5b1415615a2857806060015160ff1661039d0261ffff16915050615be1565b6003600b811115615a3557fe5b84600b811115615a4157fe5b1415615a5f57806060015160ff166103390261ffff16915050615be1565b6004600b811115615a6c57fe5b84600b811115615a7857fe5b1415615a9657806060015160ff166102ee0261ffff16915050615be1565b6005600b811115615aa357fe5b84600b811115615aaf57fe5b1415615acd57806060015160ff166102a30261ffff16915050615be1565b6006600b811115615ada57fe5b84600b811115615ae657fe5b1415615b0457806060015160ff1661023f0261ffff16915050615be1565b6007600b811115615b1157fe5b84600b811115615b1d57fe5b1415615b3b57806060015160ff166101f40261ffff16915050615be1565b6008600b811115615b4857fe5b84600b811115615b5457fe5b1415615b7257806060015160ff166101a90261ffff16915050615be1565b6009600b811115615b7f57fe5b84600b811115615b8b57fe5b1415615ba957806060015160ff166101450261ffff16915050615be1565b600a600b811115615bb657fe5b84600b811115615bc257fe5b1415615bdb57806060015160fa0260ff16915050615be1565b60009150505b92915050565b60008180519060200120838051906020012014905092915050565b828054600181600116156101000203166002900490600052602060002090601f016020900481019282601f10615c3b5780548555615c78565b82800160010185558215615c7857600052602060002091601f016020900482015b82811115615c77578254825591600101919060010190615c5c565b5b509050615c859190615ddd565b5090565b6040518060c001604052806000815260200160608152602001600073ffffffffffffffffffffffffffffffffffffffff168152602001606081526020016000151581526020016000151581525090565b828054600181600116156101000203166002900490600052602060002090601f016020900481019282601f10615d1a57805160ff1916838001178555615d48565b82800160010185558215615d48579182015b82811115615d47578251825591602001919060010190615d2c565b5b509050615d559190615ddd565b5090565b6040518060e00160405280600081526020016060815260200160608152602001600060ff168152602001600015158152602001600015158152602001600081525090565b604051806080016040528060008152602001600073ffffffffffffffffffffffffffffffffffffffff168152602001606081526020016000151581525090565b615dff91905b80821115615dfb576000816000905550600101615de3565b5090565b9056fe53747564656e7420697320616c726561647920656e726f6c6c656420746f2074686973206d6f64756c6550726f7669646564206164647265737320697320616c726561647920696e2075736553747564656e74206973206e6f7420656e726f6c6c656420746f2074686973206d6f64756c65a265627a7a72315820694178e50f2a966f64617f54adad3948bad51f87315762d535f304b18b9fd60464736f6c63430005100032",
  "source": "pragma solidity >=0.5.0;\r\n\r\nimport \"./External.sol\";\r\nimport \"./XUni.sol\";\r\n\r\n/**\r\n * @title CreditX\r\n * @dev Implements the credit storing system business logic.\r\n */\r\ncontract CreditX {\r\n\r\n    External public X;\r\n    XUni public Y;\r\n\r\n    function initializeExternal(address _address) public {\r\n        X = External(_address);\r\n    }\r\n\r\n    function initializeXUni(address _address) public {\r\n        Y = XUni(_address);\r\n    }\r\n\r\n    bool public connect = true;\r\n\r\n    enum Grade {AP, A, AM, BP, B, BM, CP, C, CM, DP, D, E}\r\n\r\n    // student count\r\n    uint256 public studentCount = 0;\r\n    // Students store by address (Student _address => Student)\r\n    mapping(address => Student) public studentsByAddress;\r\n    // Students store by id (Student _id => Student)\r\n    mapping(string => Student) public studentsById;\r\n    // Students store by index (Student _index => Student)\r\n    mapping(uint => Student) public studentsByIndex;\r\n\r\n    // Admin count\r\n    uint256 public adminCount = 0;\r\n    // Admins store by address (Admin _address => Admin)\r\n    mapping(address => Administrator) public adminsByAddress;\r\n    // Admins store by index (Admin _index => Admin)\r\n    mapping(uint => Administrator) public adminsByIndex;\r\n\r\n    // Module count\r\n    uint256 public moduleCount = 0;\r\n    // Modules store (Module _code => Module)\r\n    mapping(string => Module) public modulesByCode;\r\n    // Modules store (Module _index => Module)\r\n    mapping(uint => Module) public modulesByIndex;\r\n\r\n    // Student credits store (Student _address => (Module _code => #credits))\r\n    mapping(address => mapping(string => Module)) private studentCredits;\r\n    // Student credited modules count (Student _address => #modules)\r\n    mapping(address => uint256) public studentsCreditsCount;\r\n    // Total credits of the student (Student _address => #credits)\r\n    mapping(address => uint256) private totalStudentsCredits;\r\n\r\n    // Student enrolled modules (Student _address => Module _code)\r\n    mapping(address => Module[]) public studentEnrolledModules;\r\n    // Student enrolled modules count (Student _address => #modules)\r\n    mapping(address => uint256) public studentEnrolledModulesCount;\r\n\r\n    struct Administrator {\r\n        uint _index;\r\n        address _address;\r\n        string _name;\r\n        bool _active;\r\n    }\r\n\r\n    struct Student {\r\n        uint _index;\r\n        string _id;\r\n        address _address;\r\n        string _name;\r\n        bool _active;\r\n        bool _transfer;\r\n    }\r\n\r\n    struct Module {\r\n        uint _index;\r\n        string _code;\r\n        string _name;\r\n        uint8 _credits;\r\n        bool _active;\r\n        bool _graded;\r\n        uint256 _obtainedCredits;\r\n    }\r\n\r\n    /**\r\n     * @dev constructor of the CreditX system.\r\n     */\r\n    constructor() public {\r\n        Administrator memory admin = Administrator(adminCount, msg.sender, \"SUPER_ADMIN\", true);\r\n        adminsByAddress[msg.sender] = admin;\r\n        adminsByIndex[adminCount] = admin;\r\n        adminCount++;\r\n    }\r\n\r\n    /**\r\n     * @dev Modifier for limiting access only to admin.\r\n     */\r\n    modifier onlyAdmin {\r\n        require(adminsByAddress[msg.sender]._active, \"Only Admin can call this\");\r\n        _;\r\n    }\r\n\r\n    function isAdminActive(address _address) view public returns (bool) {\r\n        return adminsByAddress[_address]._active;\r\n    }\r\n\r\n    function isStudentActive(address _address) view public returns (bool) {\r\n        return studentsByAddress[_address]._active;\r\n    }\r\n\r\n    modifier checkAddressAvailability(address _address) {\r\n        require(!adminsByAddress[_address]._active, \"Provided address is already in use\");\r\n        require(!studentsByAddress[_address]._active, \"Provided address is already in use\");\r\n        require(!X.isEmployerActive(_address), \"Provided address is already in use\");\r\n        require(!Y.isUniversityActive(_address), \"Provided address is already in use\");\r\n        _;\r\n    }\r\n\r\n    /**\r\n    * @dev Returns the Grade according to the marks\r\n    * @param _marks Marks\r\n    */\r\n    function getGrade(uint256 _marks) pure internal returns (Grade) {\r\n\r\n        if (_marks > 100) {\r\n            if (_marks % 10 >= 5) {\r\n                _marks = _marks / 10;\r\n                _marks++;\r\n            } else {\r\n                _marks = _marks / 10;\r\n            }\r\n        }\r\n\r\n        if (_marks <= 100 && _marks >= 90) {\r\n            return Grade.AP;\r\n        } else if (_marks < 90 && _marks >= 80) {\r\n            return Grade.A;\r\n        } else if (_marks < 80 && _marks >= 75) {\r\n            return Grade.AM;\r\n        } else if (_marks < 75 && _marks >= 70) {\r\n            return Grade.BP;\r\n        } else if (_marks < 70 && _marks >= 65) {\r\n            return Grade.B;\r\n        } else if (_marks < 65 && _marks >= 60) {\r\n            return Grade.BM;\r\n        } else if (_marks < 60 && _marks >= 55) {\r\n            return Grade.CP;\r\n        } else if (_marks < 55 && _marks >= 45) {\r\n            return Grade.C;\r\n        } else if (_marks < 45 && _marks >= 40) {\r\n            return Grade.CM;\r\n        } else if (_marks < 40 && _marks >= 35) {\r\n            return Grade.DP;\r\n        } else if (_marks < 35 && _marks >= 30) {\r\n            return Grade.D;\r\n        } else {\r\n            return Grade.E;\r\n        }\r\n    }\r\n\r\n    /**\r\n     * @dev Returns the Credits according to the grade\r\n     * @param _grade Grade\r\n     * @param _code module code\r\n     */\r\n    function getCredits(Grade _grade, string memory _code) view internal returns (uint256) {\r\n\r\n        Module memory module = modulesByCode[_code];\r\n\r\n        require(module._active, \"Module dose not exist\");\r\n\r\n        if (_grade == Grade.AP) {\r\n            return (4000 / 4) * module._credits;\r\n        } else if (_grade == Grade.A) {\r\n            return (4000 / 4) * module._credits;\r\n        } else if (_grade == Grade.AM) {\r\n            return (3700 / 4) * module._credits;\r\n        } else if (_grade == Grade.BP) {\r\n            return (3300 / 4) * module._credits;\r\n        } else if (_grade == Grade.B) {\r\n            return (3000 / 4) * module._credits;\r\n        } else if (_grade == Grade.BM) {\r\n            return (2700 / 4) * module._credits;\r\n        } else if (_grade == Grade.CP) {\r\n            return (2300 / 4) * module._credits;\r\n        } else if (_grade == Grade.C) {\r\n            return (2000 / 4) * module._credits;\r\n        } else if (_grade == Grade.CM) {\r\n            return (1700 / 4) * module._credits;\r\n        } else if (_grade == Grade.DP) {\r\n            return (1300 / 4) * module._credits;\r\n        } else if (_grade == Grade.D) {\r\n            return (1000 / 4) * module._credits;\r\n        } else {\r\n            return 0;\r\n        }\r\n\r\n    }\r\n\r\n    /**\r\n     * @dev Check number of digits in a number.\r\n     * @param _number Number input\r\n     */\r\n    function numberOfDigits(uint _number) pure internal returns (uint) {\r\n        uint digits = 0;\r\n\r\n        while (_number != 0) {\r\n            _number /= 10;\r\n            digits++;\r\n        }\r\n\r\n        return digits;\r\n    }\r\n\r\n    /**\r\n     * @dev Check the Module array.\r\n     * @param _modules Module[]\r\n     * @param _code module code\r\n     */\r\n    function containsModule(Module[] memory _modules, string memory _code) pure internal returns (bool) {\r\n        for (uint256 i = 0; i < _modules.length; i++) {\r\n            if (compareString(_modules[i]._code, _code)) return true;\r\n        }\r\n        return false;\r\n    }\r\n\r\n    /**\r\n     * @dev Compare two strings.\r\n     * @param _str1 first string\r\n     * @param _str2 second string\r\n     */\r\n    function compareString(string memory _str1, string memory _str2) pure internal returns (bool) {\r\n        return keccak256(bytes(_str1)) == keccak256(bytes(_str2));\r\n    }\r\n\r\n\r\n    function getStudentsCredits(address _address, string memory _code, uint256 _stRqIndex) view public returns (uint, string memory, string memory, uint8, bool, bool, uint256) {\r\n        require(adminsByAddress[msg.sender]._active || (studentsByAddress[msg.sender]._active && _address == msg.sender) || (X.isEmployerActive(msg.sender) && X.isPermissionGranted(msg.sender, _stRqIndex)), \"Not Authorized\");\r\n        Module memory m = studentCredits[_address][_code];\r\n        return (m._index, m._code, m._name, m._credits, m._active, m._graded, m._obtainedCredits);\r\n    }\r\n\r\n    function getTotalStudentsCredits(address _address, uint256 _stRqIndex) view public returns (uint256) {\r\n        require(adminsByAddress[msg.sender]._active || (studentsByAddress[msg.sender]._active && _address == msg.sender) || (X.isEmployerActive(msg.sender) && X.isPermissionGranted(msg.sender, _stRqIndex)), \"Not Authorized\");\r\n        return totalStudentsCredits[_address];\r\n    }\r\n\r\n    /**\r\n     * @dev Add an Admin to the store\r\n     * @param _address ETH address of the admin\r\n     * @param _name name of the admin\r\n     */\r\n    function addAdmin(address _address, string memory _name) public onlyAdmin checkAddressAvailability(_address) {\r\n\r\n        Administrator memory admin = Administrator(adminCount, _address, _name, true);\r\n        adminsByAddress[_address] = admin;\r\n        adminsByIndex[adminCount] = admin;\r\n\r\n        adminCount++;\r\n    }\r\n\r\n    /**\r\n     * @dev Add a student to the store.\r\n     * @param _id student id\r\n     * @param _name student name\r\n     * @param _address ETH address of the student\r\n     */\r\n    function addStudent(string memory _id, string memory _name, address _address, bool _active, bool _transfer, uint256 _creditCount) public onlyAdmin checkAddressAvailability(_address) {\r\n        require(!studentsById[_id]._active, \"Provided ID is already in use\");\r\n\r\n        Student memory student = Student(studentCount, _id, _address, _name, _active, _transfer);\r\n        studentsByAddress[_address] = student;\r\n        studentsById[_id] = student;\r\n        studentsByIndex[studentCount] = student;\r\n\r\n        studentsCreditsCount[_address] = 0;\r\n        totalStudentsCredits[_address] = _creditCount * 1000;\r\n\r\n        studentCount++;\r\n    }\r\n\r\n    /**\r\n     * @dev Add a module to the store without a lecturer.\r\n     * @param _code module code\r\n     * @param _name module name\r\n     * @param _credits no. of credits allocated to the module\r\n     */\r\n    function addModule(string memory _code, string memory _name, uint8 _credits) public onlyAdmin {\r\n        require(!modulesByCode[_code]._active, \"Module code is already in use\");\r\n\r\n        modulesByCode[_code] = Module(moduleCount, _code, _name, _credits, true, false, 0);\r\n        modulesByIndex[moduleCount] = Module(moduleCount, _code, _name, _credits, true, false, 0);\r\n        moduleCount++;\r\n    }\r\n\r\n    /**\r\n     * @dev Set credits to a module of a student.\r\n     * @param _address Student id\r\n     * @param _code module code\r\n     * @param _marks marks student has obtained for the module\r\n     */\r\n    function setCredits(address _address, string memory _code, uint256 _marks) public onlyAdmin {\r\n        require(modulesByCode[_code]._active, \"Module does not exist\");\r\n        require(containsModule(studentEnrolledModules[_address], _code), \"Student is not enrolled to this module\");\r\n        require(numberOfDigits(_marks) <= 3, \"Invalid marks input\");\r\n\r\n        uint256 credits = getCredits(getGrade(_marks), _code);\r\n\r\n        if (studentCredits[_address][_code]._graded) {\r\n            totalStudentsCredits[_address] -= studentCredits[_address][_code]._obtainedCredits;\r\n        }\r\n\r\n        studentCredits[_address][_code]._obtainedCredits = credits;\r\n        studentCredits[_address][_code]._graded = true;\r\n        totalStudentsCredits[_address] += credits;\r\n    }\r\n\r\n    /**\r\n    * @dev Enroll a student to a module.\r\n    * @param _address Student address\r\n    * @param _code module code\r\n    */\r\n    function enrollStudent(address _address, string memory _code) public onlyAdmin {\r\n        require(modulesByCode[_code]._active, \"Module does not exist\");\r\n        require(studentsByAddress[_address]._active, \"Student does not exist\");\r\n        require(!containsModule(studentEnrolledModules[_address], _code), \"Student is already enrolled to this module\");\r\n\r\n        studentEnrolledModules[_address].push(modulesByCode[_code]);\r\n        studentEnrolledModulesCount[_address] = studentEnrolledModules[_address].length;\r\n\r\n        studentCredits[_address][_code] = modulesByCode[_code];\r\n        studentsCreditsCount[_address]++;\r\n\r\n    }\r\n\r\n}\r\n",
  "sourcePath": "D:\\Projects\\CreditX\\contracts\\CreditX.sol",
  "compiler": {
    "name": "solc",
    "version": "0.5.16+commit.9c3226ce.Emscripten.clang"
  },
  "schemaVersion": "3.3.3",
  "updatedAt": "2021-01-09T06:04:20.067Z",
  "networkType": "ethereum",
  "devdoc": {
    "details": "Implements the credit storing system business logic.",
    "methods": {
      "addAdmin(address,string)": {
        "details": "Add an Admin to the store",
        "params": {
          "_address": "ETH address of the admin",
          "_name": "name of the admin"
        }
      },
      "addModule(string,string,uint8)": {
        "details": "Add a module to the store without a lecturer.",
        "params": {
          "_code": "module code",
          "_credits": "no. of credits allocated to the module",
          "_name": "module name"
        }
      },
      "addStudent(string,string,address,bool,bool,uint256)": {
        "details": "Add a student to the store.",
        "params": {
          "_address": "ETH address of the student",
          "_id": "student id",
          "_name": "student name"
        }
      },
      "constructor": {
        "details": "constructor of the CreditX system."
      },
      "enrollStudent(address,string)": {
        "details": "Enroll a student to a module.",
        "params": {
          "_address": "Student address",
          "_code": "module code"
        }
      },
      "setCredits(address,string,uint256)": {
        "details": "Set credits to a module of a student.",
        "params": {
          "_address": "Student id",
          "_code": "module code",
          "_marks": "marks student has obtained for the module"
        }
      }
    },
    "title": "CreditX"
  },
  "userdoc": {
    "methods": {}
  }
}