{
  "contractName": "External",
  "abi": [
    {
      "inputs": [
        {
          "internalType": "address",
          "name": "_address",
          "type": "address"
        }
      ],
      "payable": false,
      "stateMutability": "nonpayable",
      "type": "constructor"
    },
    {
      "constant": true,
      "inputs": [],
      "name": "X",
      "outputs": [
        {
          "internalType": "contract CreditX",
          "name": "",
          "type": "address"
        }
      ],
      "payable": false,
      "stateMutability": "view",
      "type": "function"
    },
    {
      "constant": true,
      "inputs": [],
      "name": "Y",
      "outputs": [
        {
          "internalType": "contract XUni",
          "name": "",
          "type": "address"
        }
      ],
      "payable": false,
      "stateMutability": "view",
      "type": "function"
    },
    {
      "constant": true,
      "inputs": [],
      "name": "employerCount",
      "outputs": [
        {
          "internalType": "uint256",
          "name": "",
          "type": "uint256"
        }
      ],
      "payable": false,
      "stateMutability": "view",
      "type": "function"
    },
    {
      "constant": true,
      "inputs": [
        {
          "internalType": "address",
          "name": "",
          "type": "address"
        },
        {
          "internalType": "uint256",
          "name": "",
          "type": "uint256"
        }
      ],
      "name": "employerCreditViewRequests",
      "outputs": [
        {
          "internalType": "uint256",
          "name": "_index",
          "type": "uint256"
        },
        {
          "internalType": "address",
          "name": "_studentAddress",
          "type": "address"
        },
        {
          "internalType": "address",
          "name": "_employerAddress",
          "type": "address"
        },
        {
          "internalType": "bool",
          "name": "_permission",
          "type": "bool"
        },
        {
          "internalType": "bool",
          "name": "_active",
          "type": "bool"
        }
      ],
      "payable": false,
      "stateMutability": "view",
      "type": "function"
    },
    {
      "constant": true,
      "inputs": [
        {
          "internalType": "address",
          "name": "",
          "type": "address"
        }
      ],
      "name": "employerCreditViewRequestsCount",
      "outputs": [
        {
          "internalType": "uint256",
          "name": "",
          "type": "uint256"
        }
      ],
      "payable": false,
      "stateMutability": "view",
      "type": "function"
    },
    {
      "constant": true,
      "inputs": [
        {
          "internalType": "address",
          "name": "",
          "type": "address"
        }
      ],
      "name": "employersByAddress",
      "outputs": [
        {
          "internalType": "uint256",
          "name": "_index",
          "type": "uint256"
        },
        {
          "internalType": "address",
          "name": "_address",
          "type": "address"
        },
        {
          "internalType": "string",
          "name": "_company",
          "type": "string"
        },
        {
          "internalType": "string",
          "name": "_email",
          "type": "string"
        },
        {
          "internalType": "bool",
          "name": "_active",
          "type": "bool"
        }
      ],
      "payable": false,
      "stateMutability": "view",
      "type": "function"
    },
    {
      "constant": true,
      "inputs": [
        {
          "internalType": "uint256",
          "name": "",
          "type": "uint256"
        }
      ],
      "name": "employersByIndex",
      "outputs": [
        {
          "internalType": "uint256",
          "name": "_index",
          "type": "uint256"
        },
        {
          "internalType": "address",
          "name": "_address",
          "type": "address"
        },
        {
          "internalType": "string",
          "name": "_company",
          "type": "string"
        },
        {
          "internalType": "string",
          "name": "_email",
          "type": "string"
        },
        {
          "internalType": "bool",
          "name": "_active",
          "type": "bool"
        }
      ],
      "payable": false,
      "stateMutability": "view",
      "type": "function"
    },
    {
      "constant": true,
      "inputs": [
        {
          "internalType": "address",
          "name": "",
          "type": "address"
        },
        {
          "internalType": "uint256",
          "name": "",
          "type": "uint256"
        }
      ],
      "name": "studentCreditViewRequests",
      "outputs": [
        {
          "internalType": "uint256",
          "name": "_index",
          "type": "uint256"
        },
        {
          "internalType": "address",
          "name": "_studentAddress",
          "type": "address"
        },
        {
          "internalType": "address",
          "name": "_employerAddress",
          "type": "address"
        },
        {
          "internalType": "bool",
          "name": "_permission",
          "type": "bool"
        },
        {
          "internalType": "bool",
          "name": "_active",
          "type": "bool"
        }
      ],
      "payable": false,
      "stateMutability": "view",
      "type": "function"
    },
    {
      "constant": true,
      "inputs": [
        {
          "internalType": "address",
          "name": "",
          "type": "address"
        }
      ],
      "name": "studentCreditViewRequestsCount",
      "outputs": [
        {
          "internalType": "uint256",
          "name": "",
          "type": "uint256"
        }
      ],
      "payable": false,
      "stateMutability": "view",
      "type": "function"
    },
    {
      "constant": false,
      "inputs": [
        {
          "internalType": "address",
          "name": "_address",
          "type": "address"
        }
      ],
      "name": "initializeXUni",
      "outputs": [],
      "payable": false,
      "stateMutability": "nonpayable",
      "type": "function"
    },
    {
      "constant": true,
      "inputs": [
        {
          "internalType": "address",
          "name": "_employerAddress",
          "type": "address"
        },
        {
          "internalType": "uint256",
          "name": "_stRqIndex",
          "type": "uint256"
        }
      ],
      "name": "isPermissionGranted",
      "outputs": [
        {
          "internalType": "bool",
          "name": "",
          "type": "bool"
        }
      ],
      "payable": false,
      "stateMutability": "view",
      "type": "function"
    },
    {
      "constant": true,
      "inputs": [
        {
          "internalType": "address",
          "name": "_address",
          "type": "address"
        }
      ],
      "name": "isEmployerActive",
      "outputs": [
        {
          "internalType": "bool",
          "name": "",
          "type": "bool"
        }
      ],
      "payable": false,
      "stateMutability": "view",
      "type": "function"
    },
    {
      "constant": false,
      "inputs": [
        {
          "internalType": "address",
          "name": "_address",
          "type": "address"
        },
        {
          "internalType": "string",
          "name": "_company",
          "type": "string"
        },
        {
          "internalType": "string",
          "name": "_email",
          "type": "string"
        }
      ],
      "name": "addEmployer",
      "outputs": [],
      "payable": false,
      "stateMutability": "nonpayable",
      "type": "function"
    },
    {
      "constant": false,
      "inputs": [
        {
          "internalType": "address",
          "name": "_studentAddress",
          "type": "address"
        }
      ],
      "name": "addCreditViewRequest",
      "outputs": [],
      "payable": false,
      "stateMutability": "nonpayable",
      "type": "function"
    },
    {
      "constant": false,
      "inputs": [
        {
          "internalType": "uint256",
          "name": "_index",
          "type": "uint256"
        },
        {
          "internalType": "address",
          "name": "_employerAddress",
          "type": "address"
        },
        {
          "internalType": "bool",
          "name": "response",
          "type": "bool"
        }
      ],
      "name": "respondCreditViewRequest",
      "outputs": [],
      "payable": false,
      "stateMutability": "nonpayable",
      "type": "function"
    }
  ],
  "bytecode": "0x6080604052600060025534801561001557600080fd5b5060405161247a38038061247a8339818101604052602081101561003857600080fd5b8101908080519060200190929190505050806000806101000a81548173ffffffffffffffffffffffffffffffffffffffff021916908373ffffffffffffffffffffffffffffffffffffffff1602179055506000809054906101000a900473ffffffffffffffffffffffffffffffffffffffff1673ffffffffffffffffffffffffffffffffffffffff1663b800450c306040518263ffffffff1660e01b8152600401808273ffffffffffffffffffffffffffffffffffffffff1673ffffffffffffffffffffffffffffffffffffffff168152602001915050600060405180830381600087803b15801561012957600080fd5b505af115801561013d573d6000803e3d6000fd5b5050505050612329806101516000396000f3fe608060405234801561001057600080fd5b50600436106100f55760003560e01c80634fd94939116100975780639752d775116100665780639752d775146108b2578063c1599bd91461090a578063c7e899b514610954578063f5801529146109b0576100f5565b80634fd94939146104a85780635653b3dc146106165780635d79a3551461067c57806388462da71461075a576100f5565b8063306163a0116100d3578063306163a01461030a5780633b1e7da01461036257806345b3fe42146104405780634b62c4661461048a576100f5565b8063093deadd146100fa5780632c2ba0c91461013e5780632e0f44e6146102b0575b600080fd5b61013c6004803603602081101561011057600080fd5b81019080803573ffffffffffffffffffffffffffffffffffffffff1690602001909291905050506109f4565b005b6102ae6004803603606081101561015457600080fd5b81019080803573ffffffffffffffffffffffffffffffffffffffff1690602001909291908035906020019064010000000081111561019157600080fd5b8201836020820111156101a357600080fd5b803590602001918460018302840111640100000000831117156101c557600080fd5b91908080601f016020809104026020016040519081016040528093929190818152602001838380828437600081840152601f19601f8201169050808301925050505050505091929192908035906020019064010000000081111561022857600080fd5b82018360208201111561023a57600080fd5b8035906020019184600183028401116401000000008311171561025c57600080fd5b91908080601f016020809104026020016040519081016040528093929190818152602001838380828437600081840152601f19601f82011690508083019250505050505050919291929050505061110e565b005b610308600480360360608110156102c657600080fd5b8101908080359060200190929190803573ffffffffffffffffffffffffffffffffffffffff1690602001909291908035151590602001909291905050506118a5565b005b61034c6004803603602081101561032057600080fd5b81019080803573ffffffffffffffffffffffffffffffffffffffff169060200190929190505050611b9e565b6040518082815260200191505060405180910390f35b6103ae6004803603604081101561037857600080fd5b81019080803573ffffffffffffffffffffffffffffffffffffffff16906020019092919080359060200190929190505050611bb6565b604051808681526020018573ffffffffffffffffffffffffffffffffffffffff1673ffffffffffffffffffffffffffffffffffffffff1681526020018473ffffffffffffffffffffffffffffffffffffffff1673ffffffffffffffffffffffffffffffffffffffff16815260200183151515158152602001821515151581526020019550505050505060405180910390f35b610448611c53565b604051808273ffffffffffffffffffffffffffffffffffffffff1673ffffffffffffffffffffffffffffffffffffffff16815260200191505060405180910390f35b610492611c79565b6040518082815260200191505060405180910390f35b6104ea600480360360208110156104be57600080fd5b81019080803573ffffffffffffffffffffffffffffffffffffffff169060200190929190505050611c7f565b604051808681526020018573ffffffffffffffffffffffffffffffffffffffff1673ffffffffffffffffffffffffffffffffffffffff168152602001806020018060200184151515158152602001838103835286818151815260200191508051906020019080838360005b83811015610570578082015181840152602081019050610555565b50505050905090810190601f16801561059d5780820380516001836020036101000a031916815260200191505b50838103825285818151815260200191508051906020019080838360005b838110156105d65780820151818401526020810190506105bb565b50505050905090810190601f1680156106035780820380516001836020036101000a031916815260200191505b5097505050505050505060405180910390f35b6106626004803603604081101561062c57600080fd5b81019080803573ffffffffffffffffffffffffffffffffffffffff16906020019092919080359060200190929190505050611e12565b604051808215151515815260200191505060405180910390f35b6106c86004803603604081101561069257600080fd5b81019080803573ffffffffffffffffffffffffffffffffffffffff16906020019092919080359060200190929190505050611e7d565b604051808681526020018573ffffffffffffffffffffffffffffffffffffffff1673ffffffffffffffffffffffffffffffffffffffff1681526020018473ffffffffffffffffffffffffffffffffffffffff1673ffffffffffffffffffffffffffffffffffffffff16815260200183151515158152602001821515151581526020019550505050505060405180910390f35b6107866004803603602081101561077057600080fd5b8101908080359060200190929190505050611f1a565b604051808681526020018573ffffffffffffffffffffffffffffffffffffffff1673ffffffffffffffffffffffffffffffffffffffff168152602001806020018060200184151515158152602001838103835286818151815260200191508051906020019080838360005b8381101561080c5780820151818401526020810190506107f1565b50505050905090810190601f1680156108395780820380516001836020036101000a031916815260200191505b50838103825285818151815260200191508051906020019080838360005b83811015610872578082015181840152602081019050610857565b50505050905090810190601f16801561089f5780820380516001836020036101000a031916815260200191505b5097505050505050505060405180910390f35b6108f4600480360360208110156108c857600080fd5b81019080803573ffffffffffffffffffffffffffffffffffffffff1690602001909291905050506120ad565b6040518082815260200191505060405180910390f35b6109126120c5565b604051808273ffffffffffffffffffffffffffffffffffffffff1673ffffffffffffffffffffffffffffffffffffffff16815260200191505060405180910390f35b6109966004803603602081101561096a57600080fd5b81019080803573ffffffffffffffffffffffffffffffffffffffff1690602001909291905050506120ea565b604051808215151515815260200191505060405180910390f35b6109f2600480360360208110156109c657600080fd5b81019080803573ffffffffffffffffffffffffffffffffffffffff169060200190929190505050612143565b005b600460003373ffffffffffffffffffffffffffffffffffffffff1673ffffffffffffffffffffffffffffffffffffffff16815260200190815260200160002060040160009054906101000a900460ff16610ab6576040517f08c379a00000000000000000000000000000000000000000000000000000000081526004018080602001828103825260108152602001807f496e76616c696420456d706c6f7965720000000000000000000000000000000081525060200191505060405180910390fd5b6000809054906101000a900473ffffffffffffffffffffffffffffffffffffffff1673ffffffffffffffffffffffffffffffffffffffff1663095f7b89826040518263ffffffff1660e01b8152600401808273ffffffffffffffffffffffffffffffffffffffff1673ffffffffffffffffffffffffffffffffffffffff16815260200191505060206040518083038186803b158015610b5457600080fd5b505afa158015610b68573d6000803e3d6000fd5b505050506040513d6020811015610b7e57600080fd5b8101908080519060200190929190505050610c01576040517f08c379a00000000000000000000000000000000000000000000000000000000081526004018080602001828103825260168152602001807f53747564656e7420646f6573206e6f742065786973740000000000000000000081525060200191505060405180910390fd5b600760003373ffffffffffffffffffffffffffffffffffffffff1673ffffffffffffffffffffffffffffffffffffffff16815260200190815260200160002054600560008373ffffffffffffffffffffffffffffffffffffffff1673ffffffffffffffffffffffffffffffffffffffff1681526020019081526020016000205414610cf4576040517f08c379a000000000000000000000000000000000000000000000000000000000815260040180806020018281038252600f8152602001807f496e76616c69642052657175657374000000000000000000000000000000000081525060200191505060405180910390fd5b610cfc612187565b6040518060a00160405280600560008573ffffffffffffffffffffffffffffffffffffffff1673ffffffffffffffffffffffffffffffffffffffff1681526020019081526020016000205481526020018373ffffffffffffffffffffffffffffffffffffffff1681526020013373ffffffffffffffffffffffffffffffffffffffff16815260200160001515815260200160011515815250905080600660008473ffffffffffffffffffffffffffffffffffffffff1673ffffffffffffffffffffffffffffffffffffffff1681526020019081526020016000206000600560008673ffffffffffffffffffffffffffffffffffffffff1673ffffffffffffffffffffffffffffffffffffffff1681526020019081526020016000205481526020019081526020016000206000820151816000015560208201518160010160006101000a81548173ffffffffffffffffffffffffffffffffffffffff021916908373ffffffffffffffffffffffffffffffffffffffff16021790555060408201518160020160006101000a81548173ffffffffffffffffffffffffffffffffffffffff021916908373ffffffffffffffffffffffffffffffffffffffff16021790555060608201518160020160146101000a81548160ff02191690831515021790555060808201518160020160156101000a81548160ff02191690831515021790555090505080600860003373ffffffffffffffffffffffffffffffffffffffff1673ffffffffffffffffffffffffffffffffffffffff1681526020019081526020016000206000600760003373ffffffffffffffffffffffffffffffffffffffff1673ffffffffffffffffffffffffffffffffffffffff1681526020019081526020016000205481526020019081526020016000206000820151816000015560208201518160010160006101000a81548173ffffffffffffffffffffffffffffffffffffffff021916908373ffffffffffffffffffffffffffffffffffffffff16021790555060408201518160020160006101000a81548173ffffffffffffffffffffffffffffffffffffffff021916908373ffffffffffffffffffffffffffffffffffffffff16021790555060608201518160020160146101000a81548160ff02191690831515021790555060808201518160020160156101000a81548160ff021916908315150217905550905050600560008373ffffffffffffffffffffffffffffffffffffffff1673ffffffffffffffffffffffffffffffffffffffff16815260200190815260200160002060008154809291906001019190505550600760003373ffffffffffffffffffffffffffffffffffffffff1673ffffffffffffffffffffffffffffffffffffffff168152602001908152602001600020600081548092919060010191905055505050565b6000809054906101000a900473ffffffffffffffffffffffffffffffffffffffff1673ffffffffffffffffffffffffffffffffffffffff1663ab485995336040518263ffffffff1660e01b8152600401808273ffffffffffffffffffffffffffffffffffffffff1673ffffffffffffffffffffffffffffffffffffffff16815260200191505060206040518083038186803b1580156111ac57600080fd5b505afa1580156111c0573d6000803e3d6000fd5b505050506040513d60208110156111d657600080fd5b8101908080519060200190929190505050611259576040517f08c379a00000000000000000000000000000000000000000000000000000000081526004018080602001828103825260188152602001807f4f6e6c792041646d696e2063616e2063616c6c2074686973000000000000000081525060200191505060405180910390fd5b826000809054906101000a900473ffffffffffffffffffffffffffffffffffffffff1673ffffffffffffffffffffffffffffffffffffffff1663ab485995826040518263ffffffff1660e01b8152600401808273ffffffffffffffffffffffffffffffffffffffff1673ffffffffffffffffffffffffffffffffffffffff16815260200191505060206040518083038186803b1580156112f857600080fd5b505afa15801561130c573d6000803e3d6000fd5b505050506040513d602081101561132257600080fd5b810190808051906020019092919050505015611389576040517f08c379a00000000000000000000000000000000000000000000000000000000081526004018080602001828103825260228152602001806122d36022913960400191505060405180910390fd5b6000809054906101000a900473ffffffffffffffffffffffffffffffffffffffff1673ffffffffffffffffffffffffffffffffffffffff1663095f7b89826040518263ffffffff1660e01b8152600401808273ffffffffffffffffffffffffffffffffffffffff1673ffffffffffffffffffffffffffffffffffffffff16815260200191505060206040518083038186803b15801561142757600080fd5b505afa15801561143b573d6000803e3d6000fd5b505050506040513d602081101561145157600080fd5b8101908080519060200190929190505050156114b8576040517f08c379a00000000000000000000000000000000000000000000000000000000081526004018080602001828103825260228152602001806122d36022913960400191505060405180910390fd5b600160009054906101000a900473ffffffffffffffffffffffffffffffffffffffff1673ffffffffffffffffffffffffffffffffffffffff1663f291c3e0826040518263ffffffff1660e01b8152600401808273ffffffffffffffffffffffffffffffffffffffff1673ffffffffffffffffffffffffffffffffffffffff16815260200191505060206040518083038186803b15801561155757600080fd5b505afa15801561156b573d6000803e3d6000fd5b505050506040513d602081101561158157600080fd5b8101908080519060200190929190505050156115e8576040517f08c379a00000000000000000000000000000000000000000000000000000000081526004018080602001828103825260228152602001806122d36022913960400191505060405180910390fd5b600460008273ffffffffffffffffffffffffffffffffffffffff1673ffffffffffffffffffffffffffffffffffffffff16815260200190815260200160002060040160009054906101000a900460ff161561168e576040517f08c379a00000000000000000000000000000000000000000000000000000000081526004018080602001828103825260228152602001806122d36022913960400191505060405180910390fd5b6116966121e6565b6040518060a0016040528060025481526020018673ffffffffffffffffffffffffffffffffffffffff16815260200185815260200184815260200160011515815250905080600460008773ffffffffffffffffffffffffffffffffffffffff1673ffffffffffffffffffffffffffffffffffffffff1681526020019081526020016000206000820151816000015560208201518160010160006101000a81548173ffffffffffffffffffffffffffffffffffffffff021916908373ffffffffffffffffffffffffffffffffffffffff160217905550604082015181600201908051906020019061178792919061222d565b5060608201518160030190805190602001906117a492919061222d565b5060808201518160040160006101000a81548160ff021916908315150217905550905050806003600060025481526020019081526020016000206000820151816000015560208201518160010160006101000a81548173ffffffffffffffffffffffffffffffffffffffff021916908373ffffffffffffffffffffffffffffffffffffffff160217905550604082015181600201908051906020019061184b92919061222d565b50606082015181600301908051906020019061186892919061222d565b5060808201518160040160006101000a81548160ff0219169083151502179055509050506002600081548092919060010191905055505050505050565b6000809054906101000a900473ffffffffffffffffffffffffffffffffffffffff1673ffffffffffffffffffffffffffffffffffffffff1663095f7b89336040518263ffffffff1660e01b8152600401808273ffffffffffffffffffffffffffffffffffffffff1673ffffffffffffffffffffffffffffffffffffffff16815260200191505060206040518083038186803b15801561194357600080fd5b505afa158015611957573d6000803e3d6000fd5b505050506040513d602081101561196d57600080fd5b81019080805190602001909291905050506119f0576040517f08c379a00000000000000000000000000000000000000000000000000000000081526004018080602001828103825260168152602001807f53747564656e7420646f6573206e6f742065786973740000000000000000000081525060200191505060405180910390fd5b600660003373ffffffffffffffffffffffffffffffffffffffff1673ffffffffffffffffffffffffffffffffffffffff168152602001908152602001600020600084815260200190815260200160002060020160159054906101000a900460ff16611ac3576040517f08c379a00000000000000000000000000000000000000000000000000000000081526004018080602001828103825260168152602001807f5265717565737420646f6573206e6f742065786973740000000000000000000081525060200191505060405180910390fd5b80600660003373ffffffffffffffffffffffffffffffffffffffff1673ffffffffffffffffffffffffffffffffffffffff168152602001908152602001600020600085815260200190815260200160002060020160146101000a81548160ff02191690831515021790555080600860008473ffffffffffffffffffffffffffffffffffffffff1673ffffffffffffffffffffffffffffffffffffffff168152602001908152602001600020600085815260200190815260200160002060020160146101000a81548160ff021916908315150217905550505050565b60076020528060005260406000206000915090505481565b6006602052816000526040600020602052806000526040600020600091509150508060000154908060010160009054906101000a900473ffffffffffffffffffffffffffffffffffffffff16908060020160009054906101000a900473ffffffffffffffffffffffffffffffffffffffff16908060020160149054906101000a900460ff16908060020160159054906101000a900460ff16905085565b600160009054906101000a900473ffffffffffffffffffffffffffffffffffffffff1681565b60025481565b60046020528060005260406000206000915090508060000154908060010160009054906101000a900473ffffffffffffffffffffffffffffffffffffffff1690806002018054600181600116156101000203166002900480601f016020809104026020016040519081016040528092919081815260200182805460018160011615610100020316600290048015611d575780601f10611d2c57610100808354040283529160200191611d57565b820191906000526020600020905b815481529060010190602001808311611d3a57829003601f168201915b505050505090806003018054600181600116156101000203166002900480601f016020809104026020016040519081016040528092919081815260200182805460018160011615610100020316600290048015611df55780601f10611dca57610100808354040283529160200191611df5565b820191906000526020600020905b815481529060010190602001808311611dd857829003601f168201915b5050505050908060040160009054906101000a900460ff16905085565b6000600860008473ffffffffffffffffffffffffffffffffffffffff1673ffffffffffffffffffffffffffffffffffffffff168152602001908152602001600020600083815260200190815260200160002060020160149054906101000a900460ff16905092915050565b6008602052816000526040600020602052806000526040600020600091509150508060000154908060010160009054906101000a900473ffffffffffffffffffffffffffffffffffffffff16908060020160009054906101000a900473ffffffffffffffffffffffffffffffffffffffff16908060020160149054906101000a900460ff16908060020160159054906101000a900460ff16905085565b60036020528060005260406000206000915090508060000154908060010160009054906101000a900473ffffffffffffffffffffffffffffffffffffffff1690806002018054600181600116156101000203166002900480601f016020809104026020016040519081016040528092919081815260200182805460018160011615610100020316600290048015611ff25780601f10611fc757610100808354040283529160200191611ff2565b820191906000526020600020905b815481529060010190602001808311611fd557829003601f168201915b505050505090806003018054600181600116156101000203166002900480601f0160208091040260200160405190810160405280929190818152602001828054600181600116156101000203166002900480156120905780601f1061206557610100808354040283529160200191612090565b820191906000526020600020905b81548152906001019060200180831161207357829003601f168201915b5050505050908060040160009054906101000a900460ff16905085565b60056020528060005260406000206000915090505481565b6000809054906101000a900473ffffffffffffffffffffffffffffffffffffffff1681565b6000600460008373ffffffffffffffffffffffffffffffffffffffff1673ffffffffffffffffffffffffffffffffffffffff16815260200190815260200160002060040160009054906101000a900460ff169050919050565b80600160006101000a81548173ffffffffffffffffffffffffffffffffffffffff021916908373ffffffffffffffffffffffffffffffffffffffff16021790555050565b6040518060a0016040528060008152602001600073ffffffffffffffffffffffffffffffffffffffff168152602001600073ffffffffffffffffffffffffffffffffffffffff1681526020016000151581526020016000151581525090565b6040518060a0016040528060008152602001600073ffffffffffffffffffffffffffffffffffffffff16815260200160608152602001606081526020016000151581525090565b828054600181600116156101000203166002900490600052602060002090601f016020900481019282601f1061226e57805160ff191683800117855561229c565b8280016001018555821561229c579182015b8281111561229b578251825591602001919060010190612280565b5b5090506122a991906122ad565b5090565b6122cf91905b808211156122cb5760008160009055506001016122b3565b5090565b9056fe50726f7669646564206164647265737320697320616c726561647920696e20757365a265627a7a72315820c87fbb8bda0d3fdcb183b3fca4b596e392314b52e268843e5341a0d48b41c65664736f6c63430005100032",
  "source": "pragma solidity >=0.5.0;\r\nimport \"./CreditX.sol\";\r\nimport \"./XUni.sol\";\r\n\r\ncontract External {\r\n\r\n    CreditX public X;\r\n    XUni public Y;\r\n\r\n    constructor(address _address) public {\r\n        X = CreditX(_address);\r\n        X.initializeExternal(address(this));\r\n    }\r\n\r\n    function initializeXUni(address _address) public {\r\n        Y = XUni(_address);\r\n    }\r\n\r\n    uint256 public employerCount = 0;\r\n\r\n    mapping(uint256 => Employer) public employersByIndex;\r\n\r\n    mapping(address => Employer) public employersByAddress;\r\n\r\n    mapping(address => uint256) public studentCreditViewRequestsCount;\r\n\r\n    mapping(address => mapping(uint256 => CreditViewRequest)) public studentCreditViewRequests;\r\n\r\n    mapping(address => uint256) public employerCreditViewRequestsCount;\r\n\r\n    mapping(address => mapping(uint256 => CreditViewRequest)) public employerCreditViewRequests;\r\n\r\n    struct Employer {\r\n        uint _index;\r\n        address _address;\r\n        string _company;\r\n        string _email;\r\n        bool _active;\r\n    }\r\n\r\n    struct CreditViewRequest {\r\n        uint _index;\r\n        address _studentAddress;\r\n        address _employerAddress;\r\n        bool _permission;\r\n        bool _active;\r\n    }\r\n\r\n    function isPermissionGranted(address _employerAddress, uint256 _stRqIndex) view public returns (bool) {\r\n        return employerCreditViewRequests[_employerAddress][_stRqIndex]._permission;\r\n    }\r\n\r\n    function isEmployerActive(address _address) view public returns (bool) {\r\n        return employersByAddress[_address]._active;\r\n    }\r\n\r\n    modifier onlyAdmin {\r\n        require(X.isAdminActive(msg.sender), \"Only Admin can call this\");\r\n        _;\r\n    }\r\n\r\n    modifier checkAddressAvailability(address _address) {\r\n        require(!X.isAdminActive(_address), \"Provided address is already in use\");\r\n        require(!X.isStudentActive(_address), \"Provided address is already in use\");\r\n        require(!Y.isUniversityActive(_address), \"Provided address is already in use\");\r\n        require(!employersByAddress[_address]._active, \"Provided address is already in use\");\r\n        _;\r\n    }\r\n\r\n    //(employersByAddress[msg.sender]._active && studentCreditViewRequests[_address][msg.sender]._permission)\r\n\r\n    function addEmployer(address _address, string memory _company, string memory _email) public onlyAdmin checkAddressAvailability(_address) {\r\n        Employer memory employer = Employer(employerCount, _address, _company, _email, true);\r\n        employersByAddress[_address] = employer;\r\n        employersByIndex[employerCount] = employer;\r\n\r\n        employerCount++;\r\n    }\r\n\r\n    function addCreditViewRequest(address _studentAddress) public {\r\n        require(employersByAddress[msg.sender]._active, \"Invalid Employer\");\r\n        require(X.isStudentActive(_studentAddress), \"Student does not exist\");\r\n        require(studentCreditViewRequestsCount[_studentAddress] == employerCreditViewRequestsCount[msg.sender], \"Invalid Request\");\r\n\r\n        CreditViewRequest memory creditViewRequest = CreditViewRequest(studentCreditViewRequestsCount[_studentAddress], _studentAddress, msg.sender, false, true);\r\n\r\n        studentCreditViewRequests[_studentAddress][studentCreditViewRequestsCount[_studentAddress]] = creditViewRequest;\r\n        employerCreditViewRequests[msg.sender][employerCreditViewRequestsCount[msg.sender]] = creditViewRequest;\r\n\r\n        studentCreditViewRequestsCount[_studentAddress]++;\r\n        employerCreditViewRequestsCount[msg.sender]++;\r\n    }\r\n\r\n    function respondCreditViewRequest(uint256 _index, address _employerAddress, bool response) public {\r\n        require(X.isStudentActive(msg.sender), \"Student does not exist\");\r\n        require(studentCreditViewRequests[msg.sender][_index]._active, \"Request does not exist\");\r\n\r\n        studentCreditViewRequests[msg.sender][_index]._permission = response;\r\n        employerCreditViewRequests[_employerAddress][_index]._permission = response;\r\n    }\r\n\r\n}\r\n",
  "sourcePath": "D:\\Projects\\CreditX\\contracts\\External.sol",
  "compiler": {
    "name": "solc",
    "version": "0.5.16+commit.9c3226ce.Emscripten.clang"
  },
  "schemaVersion": "3.3.3",
  "updatedAt": "2021-01-09T06:04:20.084Z",
  "networkType": "ethereum",
  "devdoc": {
    "methods": {}
  },
  "userdoc": {
    "methods": {}
  }
}