{
  "contractName": "XUni",
  "abi": [
    {
      "inputs": [
        {
          "internalType": "address",
          "name": "_ExternalAddress",
          "type": "address"
        },
        {
          "internalType": "address",
          "name": "_CreditXAddress",
          "type": "address"
        }
      ],
      "payable": false,
      "stateMutability": "nonpayable",
      "type": "constructor"
    },
    {
      "constant": true,
      "inputs": [],
      "name": "X",
      "outputs": [
        {
          "internalType": "contract External",
          "name": "",
          "type": "address"
        }
      ],
      "payable": false,
      "stateMutability": "view",
      "type": "function"
    },
    {
      "constant": true,
      "inputs": [],
      "name": "Y",
      "outputs": [
        {
          "internalType": "contract CreditX",
          "name": "",
          "type": "address"
        }
      ],
      "payable": false,
      "stateMutability": "view",
      "type": "function"
    },
    {
      "constant": true,
      "inputs": [
        {
          "internalType": "uint256",
          "name": "",
          "type": "uint256"
        }
      ],
      "name": "transferRequests",
      "outputs": [
        {
          "internalType": "uint256",
          "name": "_index",
          "type": "uint256"
        },
        {
          "internalType": "uint256",
          "name": "_uniIndex",
          "type": "uint256"
        },
        {
          "internalType": "string",
          "name": "_studentName",
          "type": "string"
        },
        {
          "internalType": "address",
          "name": "_universityAddress",
          "type": "address"
        },
        {
          "internalType": "bool",
          "name": "_approval",
          "type": "bool"
        },
        {
          "internalType": "bool",
          "name": "_active",
          "type": "bool"
        },
        {
          "internalType": "uint256",
          "name": "_creditCount",
          "type": "uint256"
        },
        {
          "internalType": "string",
          "name": "_studentId",
          "type": "string"
        }
      ],
      "payable": false,
      "stateMutability": "view",
      "type": "function"
    },
    {
      "constant": true,
      "inputs": [],
      "name": "transferRequestsCount",
      "outputs": [
        {
          "internalType": "uint256",
          "name": "",
          "type": "uint256"
        }
      ],
      "payable": false,
      "stateMutability": "view",
      "type": "function"
    },
    {
      "constant": true,
      "inputs": [
        {
          "internalType": "address",
          "name": "",
          "type": "address"
        }
      ],
      "name": "universityByAddress",
      "outputs": [
        {
          "internalType": "uint256",
          "name": "_index",
          "type": "uint256"
        },
        {
          "internalType": "address",
          "name": "_address",
          "type": "address"
        },
        {
          "internalType": "string",
          "name": "_name",
          "type": "string"
        },
        {
          "internalType": "string",
          "name": "_email",
          "type": "string"
        },
        {
          "internalType": "bool",
          "name": "_active",
          "type": "bool"
        }
      ],
      "payable": false,
      "stateMutability": "view",
      "type": "function"
    },
    {
      "constant": true,
      "inputs": [
        {
          "internalType": "uint256",
          "name": "",
          "type": "uint256"
        }
      ],
      "name": "universityByIndex",
      "outputs": [
        {
          "internalType": "uint256",
          "name": "_index",
          "type": "uint256"
        },
        {
          "internalType": "address",
          "name": "_address",
          "type": "address"
        },
        {
          "internalType": "string",
          "name": "_name",
          "type": "string"
        },
        {
          "internalType": "string",
          "name": "_email",
          "type": "string"
        },
        {
          "internalType": "bool",
          "name": "_active",
          "type": "bool"
        }
      ],
      "payable": false,
      "stateMutability": "view",
      "type": "function"
    },
    {
      "constant": true,
      "inputs": [],
      "name": "universityCount",
      "outputs": [
        {
          "internalType": "uint256",
          "name": "",
          "type": "uint256"
        }
      ],
      "payable": false,
      "stateMutability": "view",
      "type": "function"
    },
    {
      "constant": true,
      "inputs": [
        {
          "internalType": "address",
          "name": "",
          "type": "address"
        },
        {
          "internalType": "uint256",
          "name": "",
          "type": "uint256"
        }
      ],
      "name": "universityTransferRequests",
      "outputs": [
        {
          "internalType": "uint256",
          "name": "_index",
          "type": "uint256"
        },
        {
          "internalType": "uint256",
          "name": "_uniIndex",
          "type": "uint256"
        },
        {
          "internalType": "string",
          "name": "_studentName",
          "type": "string"
        },
        {
          "internalType": "address",
          "name": "_universityAddress",
          "type": "address"
        },
        {
          "internalType": "bool",
          "name": "_approval",
          "type": "bool"
        },
        {
          "internalType": "bool",
          "name": "_active",
          "type": "bool"
        },
        {
          "internalType": "uint256",
          "name": "_creditCount",
          "type": "uint256"
        },
        {
          "internalType": "string",
          "name": "_studentId",
          "type": "string"
        }
      ],
      "payable": false,
      "stateMutability": "view",
      "type": "function"
    },
    {
      "constant": true,
      "inputs": [
        {
          "internalType": "address",
          "name": "",
          "type": "address"
        }
      ],
      "name": "universityTransferRequestsCount",
      "outputs": [
        {
          "internalType": "uint256",
          "name": "",
          "type": "uint256"
        }
      ],
      "payable": false,
      "stateMutability": "view",
      "type": "function"
    },
    {
      "constant": true,
      "inputs": [
        {
          "internalType": "address",
          "name": "_address",
          "type": "address"
        }
      ],
      "name": "isUniversityActive",
      "outputs": [
        {
          "internalType": "bool",
          "name": "",
          "type": "bool"
        }
      ],
      "payable": false,
      "stateMutability": "view",
      "type": "function"
    },
    {
      "constant": true,
      "inputs": [
        {
          "internalType": "uint256",
          "name": "_trRqIndex",
          "type": "uint256"
        }
      ],
      "name": "isApproved",
      "outputs": [
        {
          "internalType": "bool",
          "name": "",
          "type": "bool"
        }
      ],
      "payable": false,
      "stateMutability": "view",
      "type": "function"
    },
    {
      "constant": false,
      "inputs": [
        {
          "internalType": "address",
          "name": "_address",
          "type": "address"
        },
        {
          "internalType": "string",
          "name": "_name",
          "type": "string"
        },
        {
          "internalType": "string",
          "name": "_email",
          "type": "string"
        }
      ],
      "name": "addUniversity",
      "outputs": [],
      "payable": false,
      "stateMutability": "nonpayable",
      "type": "function"
    },
    {
      "constant": false,
      "inputs": [
        {
          "internalType": "string",
          "name": "_name",
          "type": "string"
        },
        {
          "internalType": "address",
          "name": "_universityAddress",
          "type": "address"
        },
        {
          "internalType": "uint256",
          "name": "_creditCount",
          "type": "uint256"
        },
        {
          "internalType": "string",
          "name": "_studentId",
          "type": "string"
        }
      ],
      "name": "addTransferRequest",
      "outputs": [],
      "payable": false,
      "stateMutability": "nonpayable",
      "type": "function"
    },
    {
      "constant": false,
      "inputs": [
        {
          "internalType": "uint256",
          "name": "_uniIndex",
          "type": "uint256"
        },
        {
          "internalType": "bool",
          "name": "response",
          "type": "bool"
        }
      ],
      "name": "respondTransferRequest",
      "outputs": [],
      "payable": false,
      "stateMutability": "nonpayable",
      "type": "function"
    }
  ],
  "bytecode": "0x60806040526000600255600060055534801561001a57600080fd5b50604051620026d4380380620026d48339818101604052604081101561003f57600080fd5b810190808051906020019092919080519060200190929190505050816000806101000a81548173ffffffffffffffffffffffffffffffffffffffff021916908373ffffffffffffffffffffffffffffffffffffffff16021790555080600160006101000a81548173ffffffffffffffffffffffffffffffffffffffff021916908373ffffffffffffffffffffffffffffffffffffffff1602179055506000809054906101000a900473ffffffffffffffffffffffffffffffffffffffff1673ffffffffffffffffffffffffffffffffffffffff1663f5801529306040518263ffffffff1660e01b8152600401808273ffffffffffffffffffffffffffffffffffffffff1673ffffffffffffffffffffffffffffffffffffffff168152602001915050600060405180830381600087803b15801561017b57600080fd5b505af115801561018f573d6000803e3d6000fd5b50505050600160009054906101000a900473ffffffffffffffffffffffffffffffffffffffff1673ffffffffffffffffffffffffffffffffffffffff1663f5801529306040518263ffffffff1660e01b8152600401808273ffffffffffffffffffffffffffffffffffffffff1673ffffffffffffffffffffffffffffffffffffffff168152602001915050600060405180830381600087803b15801561023457600080fd5b505af1158015610248573d6000803e3d6000fd5b505050505050612476806200025e6000396000f3fe608060405234801561001057600080fd5b50600436106100ea5760003560e01c80637b4db3eb1161008c578063d7223db611610066578063d7223db614610979578063f241ba0b14610997578063f291c3e014610b13578063fb2b6d7e14610b6f576100ea565b80637b4db3eb14610746578063a8d2a3ba1461079e578063c1599bd91461092f576100ea565b80632bdff0d8116100c85780632bdff0d814610526578063418374f31461069857806345b3fe42146106b65780637910867b14610700576100ea565b80630199ea15146100ef57806302e55c931461025d57806303486c40146103b5575b600080fd5b6101316004803603602081101561010557600080fd5b81019080803573ffffffffffffffffffffffffffffffffffffffff169060200190929190505050610ba9565b604051808681526020018573ffffffffffffffffffffffffffffffffffffffff1673ffffffffffffffffffffffffffffffffffffffff168152602001806020018060200184151515158152602001838103835286818151815260200191508051906020019080838360005b838110156101b757808201518184015260208101905061019c565b50505050905090810190601f1680156101e45780820380516001836020036101000a031916815260200191505b50838103825285818151815260200191508051906020019080838360005b8381101561021d578082015181840152602081019050610202565b50505050905090810190601f16801561024a5780820380516001836020036101000a031916815260200191505b5097505050505050505060405180910390f35b6102896004803603602081101561027357600080fd5b8101908080359060200190929190505050610d3c565b604051808681526020018573ffffffffffffffffffffffffffffffffffffffff1673ffffffffffffffffffffffffffffffffffffffff168152602001806020018060200184151515158152602001838103835286818151815260200191508051906020019080838360005b8381101561030f5780820151818401526020810190506102f4565b50505050905090810190601f16801561033c5780820380516001836020036101000a031916815260200191505b50838103825285818151815260200191508051906020019080838360005b8381101561037557808201518184015260208101905061035a565b50505050905090810190601f1680156103a25780820380516001836020036101000a031916815260200191505b5097505050505050505060405180910390f35b6103e1600480360360208110156103cb57600080fd5b8101908080359060200190929190505050610ecf565b60405180898152602001888152602001806020018773ffffffffffffffffffffffffffffffffffffffff1673ffffffffffffffffffffffffffffffffffffffff168152602001861515151581526020018515151515815260200184815260200180602001838103835289818151815260200191508051906020019080838360005b8381101561047d578082015181840152602081019050610462565b50505050905090810190601f1680156104aa5780820380516001836020036101000a031916815260200191505b50838103825284818151815260200191508051906020019080838360005b838110156104e35780820151818401526020810190506104c8565b50505050905090810190601f1680156105105780820380516001836020036101000a031916815260200191505b509a505050505050505050505060405180910390f35b6106966004803603606081101561053c57600080fd5b81019080803573ffffffffffffffffffffffffffffffffffffffff1690602001909291908035906020019064010000000081111561057957600080fd5b82018360208201111561058b57600080fd5b803590602001918460018302840111640100000000831117156105ad57600080fd5b91908080601f016020809104026020016040519081016040528093929190818152602001838380828437600081840152601f19601f8201169050808301925050505050505091929192908035906020019064010000000081111561061057600080fd5b82018360208201111561062257600080fd5b8035906020019184600183028401116401000000008311171561064457600080fd5b91908080601f016020809104026020016040519081016040528093929190818152602001838380828437600081840152601f19601f820116905080830192505050505050509192919290505050611081565b005b6106a061181a565b6040518082815260200191505060405180910390f35b6106be611820565b604051808273ffffffffffffffffffffffffffffffffffffffff1673ffffffffffffffffffffffffffffffffffffffff16815260200191505060405180910390f35b61072c6004803603602081101561071657600080fd5b8101908080359060200190929190505050611846565b604051808215151515815260200191505060405180910390f35b6107886004803603602081101561075c57600080fd5b81019080803573ffffffffffffffffffffffffffffffffffffffff169060200190929190505050611873565b6040518082815260200191505060405180910390f35b6107ea600480360360408110156107b457600080fd5b81019080803573ffffffffffffffffffffffffffffffffffffffff1690602001909291908035906020019092919050505061188b565b60405180898152602001888152602001806020018773ffffffffffffffffffffffffffffffffffffffff1673ffffffffffffffffffffffffffffffffffffffff168152602001861515151581526020018515151515815260200184815260200180602001838103835289818151815260200191508051906020019080838360005b8381101561088657808201518184015260208101905061086b565b50505050905090810190601f1680156108b35780820380516001836020036101000a031916815260200191505b50838103825284818151815260200191508051906020019080838360005b838110156108ec5780820151818401526020810190506108d1565b50505050905090810190601f1680156109195780820380516001836020036101000a031916815260200191505b509a505050505050505050505060405180910390f35b610937611a4a565b604051808273ffffffffffffffffffffffffffffffffffffffff1673ffffffffffffffffffffffffffffffffffffffff16815260200191505060405180910390f35b610981611a6f565b6040518082815260200191505060405180910390f35b610b11600480360360808110156109ad57600080fd5b81019080803590602001906401000000008111156109ca57600080fd5b8201836020820111156109dc57600080fd5b803590602001918460018302840111640100000000831117156109fe57600080fd5b91908080601f016020809104026020016040519081016040528093929190818152602001838380828437600081840152601f19601f820116905080830192505050505050509192919290803573ffffffffffffffffffffffffffffffffffffffff1690602001909291908035906020019092919080359060200190640100000000811115610a8b57600080fd5b820183602082011115610a9d57600080fd5b80359060200191846001830284011164010000000083111715610abf57600080fd5b91908080601f016020809104026020016040519081016040528093929190818152602001838380828437600081840152601f19601f820116905080830192505050505050509192919290505050611a75565b005b610b5560048036036020811015610b2957600080fd5b81019080803573ffffffffffffffffffffffffffffffffffffffff169060200190929190505050611ff6565b604051808215151515815260200191505060405180910390f35b610ba760048036036040811015610b8557600080fd5b810190808035906020019092919080351515906020019092919050505061204f565b005b60046020528060005260406000206000915090508060000154908060010160009054906101000a900473ffffffffffffffffffffffffffffffffffffffff1690806002018054600181600116156101000203166002900480601f016020809104026020016040519081016040528092919081815260200182805460018160011615610100020316600290048015610c815780601f10610c5657610100808354040283529160200191610c81565b820191906000526020600020905b815481529060010190602001808311610c6457829003601f168201915b505050505090806003018054600181600116156101000203166002900480601f016020809104026020016040519081016040528092919081815260200182805460018160011615610100020316600290048015610d1f5780601f10610cf457610100808354040283529160200191610d1f565b820191906000526020600020905b815481529060010190602001808311610d0257829003601f168201915b5050505050908060040160009054906101000a900460ff16905085565b60036020528060005260406000206000915090508060000154908060010160009054906101000a900473ffffffffffffffffffffffffffffffffffffffff1690806002018054600181600116156101000203166002900480601f016020809104026020016040519081016040528092919081815260200182805460018160011615610100020316600290048015610e145780601f10610de957610100808354040283529160200191610e14565b820191906000526020600020905b815481529060010190602001808311610df757829003601f168201915b505050505090806003018054600181600116156101000203166002900480601f016020809104026020016040519081016040528092919081815260200182805460018160011615610100020316600290048015610eb25780601f10610e8757610100808354040283529160200191610eb2565b820191906000526020600020905b815481529060010190602001808311610e9557829003601f168201915b5050505050908060040160009054906101000a900460ff16905085565b6006602052806000526040600020600091509050806000015490806001015490806002018054600181600116156101000203166002900480601f016020809104026020016040519081016040528092919081815260200182805460018160011615610100020316600290048015610f875780601f10610f5c57610100808354040283529160200191610f87565b820191906000526020600020905b815481529060010190602001808311610f6a57829003601f168201915b5050505050908060030160009054906101000a900473ffffffffffffffffffffffffffffffffffffffff16908060030160149054906101000a900460ff16908060030160159054906101000a900460ff1690806004015490806005018054600181600116156101000203166002900480601f0160208091040260200160405190810160405280929190818152602001828054600181600116156101000203166002900480156110775780601f1061104c57610100808354040283529160200191611077565b820191906000526020600020905b81548152906001019060200180831161105a57829003601f168201915b5050505050905088565b600160009054906101000a900473ffffffffffffffffffffffffffffffffffffffff1673ffffffffffffffffffffffffffffffffffffffff1663ab485995336040518263ffffffff1660e01b8152600401808273ffffffffffffffffffffffffffffffffffffffff1673ffffffffffffffffffffffffffffffffffffffff16815260200191505060206040518083038186803b15801561112057600080fd5b505afa158015611134573d6000803e3d6000fd5b505050506040513d602081101561114a57600080fd5b81019080805190602001909291905050506111cd576040517f08c379a00000000000000000000000000000000000000000000000000000000081526004018080602001828103825260188152602001807f4f6e6c792041646d696e2063616e2063616c6c2074686973000000000000000081525060200191505060405180910390fd5b82600160009054906101000a900473ffffffffffffffffffffffffffffffffffffffff1673ffffffffffffffffffffffffffffffffffffffff1663ab485995826040518263ffffffff1660e01b8152600401808273ffffffffffffffffffffffffffffffffffffffff1673ffffffffffffffffffffffffffffffffffffffff16815260200191505060206040518083038186803b15801561126d57600080fd5b505afa158015611281573d6000803e3d6000fd5b505050506040513d602081101561129757600080fd5b8101908080519060200190929190505050156112fe576040517f08c379a00000000000000000000000000000000000000000000000000000000081526004018080602001828103825260228152602001806124206022913960400191505060405180910390fd5b600160009054906101000a900473ffffffffffffffffffffffffffffffffffffffff1673ffffffffffffffffffffffffffffffffffffffff1663095f7b89826040518263ffffffff1660e01b8152600401808273ffffffffffffffffffffffffffffffffffffffff1673ffffffffffffffffffffffffffffffffffffffff16815260200191505060206040518083038186803b15801561139d57600080fd5b505afa1580156113b1573d6000803e3d6000fd5b505050506040513d60208110156113c757600080fd5b81019080805190602001909291905050501561142e576040517f08c379a00000000000000000000000000000000000000000000000000000000081526004018080602001828103825260228152602001806124206022913960400191505060405180910390fd5b6000809054906101000a900473ffffffffffffffffffffffffffffffffffffffff1673ffffffffffffffffffffffffffffffffffffffff1663c7e899b5826040518263ffffffff1660e01b8152600401808273ffffffffffffffffffffffffffffffffffffffff1673ffffffffffffffffffffffffffffffffffffffff16815260200191505060206040518083038186803b1580156114cc57600080fd5b505afa1580156114e0573d6000803e3d6000fd5b505050506040513d60208110156114f657600080fd5b81019080805190602001909291905050501561155d576040517f08c379a00000000000000000000000000000000000000000000000000000000081526004018080602001828103825260228152602001806124206022913960400191505060405180910390fd5b600460008273ffffffffffffffffffffffffffffffffffffffff1673ffffffffffffffffffffffffffffffffffffffff16815260200190815260200160002060040160009054906101000a900460ff1615611603576040517f08c379a00000000000000000000000000000000000000000000000000000000081526004018080602001828103825260228152602001806124206022913960400191505060405180910390fd5b61160b6122d4565b6040518060a0016040528060025481526020018673ffffffffffffffffffffffffffffffffffffffff16815260200185815260200184815260200160011515815250905080600460008773ffffffffffffffffffffffffffffffffffffffff1673ffffffffffffffffffffffffffffffffffffffff1681526020019081526020016000206000820151816000015560208201518160010160006101000a81548173ffffffffffffffffffffffffffffffffffffffff021916908373ffffffffffffffffffffffffffffffffffffffff16021790555060408201518160020190805190602001906116fc92919061231b565b50606082015181600301908051906020019061171992919061231b565b5060808201518160040160006101000a81548160ff021916908315150217905550905050806003600060025481526020019081526020016000206000820151816000015560208201518160010160006101000a81548173ffffffffffffffffffffffffffffffffffffffff021916908373ffffffffffffffffffffffffffffffffffffffff16021790555060408201518160020190805190602001906117c092919061231b565b5060608201518160030190805190602001906117dd92919061231b565b5060808201518160040160006101000a81548160ff0219169083151502179055509050506002600081548092919060010191905055505050505050565b60025481565b600160009054906101000a900473ffffffffffffffffffffffffffffffffffffffff1681565b60006006600083815260200190815260200160002060030160149054906101000a900460ff169050919050565b60076020528060005260406000206000915090505481565b600860205281600052604060002060205280600052604060002060009150915050806000015490806001015490806002018054600181600116156101000203166002900480601f0160208091040260200160405190810160405280929190818152602001828054600181600116156101000203166002900480156119505780601f1061192557610100808354040283529160200191611950565b820191906000526020600020905b81548152906001019060200180831161193357829003601f168201915b5050505050908060030160009054906101000a900473ffffffffffffffffffffffffffffffffffffffff16908060030160149054906101000a900460ff16908060030160159054906101000a900460ff1690806004015490806005018054600181600116156101000203166002900480601f016020809104026020016040519081016040528092919081815260200182805460018160011615610100020316600290048015611a405780601f10611a1557610100808354040283529160200191611a40565b820191906000526020600020905b815481529060010190602001808311611a2357829003601f168201915b5050505050905088565b6000809054906101000a900473ffffffffffffffffffffffffffffffffffffffff1681565b60055481565b600160009054906101000a900473ffffffffffffffffffffffffffffffffffffffff1673ffffffffffffffffffffffffffffffffffffffff1663ab485995336040518263ffffffff1660e01b8152600401808273ffffffffffffffffffffffffffffffffffffffff1673ffffffffffffffffffffffffffffffffffffffff16815260200191505060206040518083038186803b158015611b1457600080fd5b505afa158015611b28573d6000803e3d6000fd5b505050506040513d6020811015611b3e57600080fd5b8101908080519060200190929190505050611bc1576040517f08c379a00000000000000000000000000000000000000000000000000000000081526004018080602001828103825260188152602001807f4f6e6c792041646d696e2063616e2063616c6c2074686973000000000000000081525060200191505060405180910390fd5b600460008473ffffffffffffffffffffffffffffffffffffffff1673ffffffffffffffffffffffffffffffffffffffff16815260200190815260200160002060040160009054906101000a900460ff16611c83576040517f08c379a00000000000000000000000000000000000000000000000000000000081526004018080602001828103825260128152602001807f496e76616c696420556e6976657273697479000000000000000000000000000081525060200191505060405180910390fd5b611c8b61239b565b6040518061010001604052806005548152602001600760008773ffffffffffffffffffffffffffffffffffffffff1673ffffffffffffffffffffffffffffffffffffffff1681526020019081526020016000205481526020018681526020018573ffffffffffffffffffffffffffffffffffffffff1681526020016000151581526020016001151581526020018481526020018381525090508060066000600554815260200190815260200160002060008201518160000155602082015181600101556040820151816002019080519060200190611d6a92919061231b565b5060608201518160030160006101000a81548173ffffffffffffffffffffffffffffffffffffffff021916908373ffffffffffffffffffffffffffffffffffffffff16021790555060808201518160030160146101000a81548160ff02191690831515021790555060a08201518160030160156101000a81548160ff02191690831515021790555060c0820151816004015560e0820151816005019080519060200190611e1892919061231b565b5090505080600860008673ffffffffffffffffffffffffffffffffffffffff1673ffffffffffffffffffffffffffffffffffffffff1681526020019081526020016000206000600760008873ffffffffffffffffffffffffffffffffffffffff1673ffffffffffffffffffffffffffffffffffffffff16815260200190815260200160002054815260200190815260200160002060008201518160000155602082015181600101556040820151816002019080519060200190611edc92919061231b565b5060608201518160030160006101000a81548173ffffffffffffffffffffffffffffffffffffffff021916908373ffffffffffffffffffffffffffffffffffffffff16021790555060808201518160030160146101000a81548160ff02191690831515021790555060a08201518160030160156101000a81548160ff02191690831515021790555060c0820151816004015560e0820151816005019080519060200190611f8a92919061231b565b50905050600560008154809291906001019190505550600760008573ffffffffffffffffffffffffffffffffffffffff1673ffffffffffffffffffffffffffffffffffffffff168152602001908152602001600020600081548092919060010191905055505050505050565b6000600460008373ffffffffffffffffffffffffffffffffffffffff1673ffffffffffffffffffffffffffffffffffffffff16815260200190815260200160002060040160009054906101000a900460ff169050919050565b600460003373ffffffffffffffffffffffffffffffffffffffff1673ffffffffffffffffffffffffffffffffffffffff16815260200190815260200160002060040160009054906101000a900460ff16612111576040517f08c379a00000000000000000000000000000000000000000000000000000000081526004018080602001828103825260198152602001807f556e697665727369747920646f6573206e6f742065786973740000000000000081525060200191505060405180910390fd5b600860003373ffffffffffffffffffffffffffffffffffffffff1673ffffffffffffffffffffffffffffffffffffffff168152602001908152602001600020600083815260200190815260200160002060030160159054906101000a900460ff166121e4576040517f08c379a00000000000000000000000000000000000000000000000000000000081526004018080602001828103825260168152602001807f5265717565737420646f6573206e6f742065786973740000000000000000000081525060200191505060405180910390fd5b80600860003373ffffffffffffffffffffffffffffffffffffffff1673ffffffffffffffffffffffffffffffffffffffff168152602001908152602001600020600084815260200190815260200160002060030160146101000a81548160ff0219169083151502179055508060066000600860003373ffffffffffffffffffffffffffffffffffffffff1673ffffffffffffffffffffffffffffffffffffffff168152602001908152602001600020600086815260200190815260200160002060000154815260200190815260200160002060030160146101000a81548160ff0219169083151502179055505050565b6040518060a0016040528060008152602001600073ffffffffffffffffffffffffffffffffffffffff16815260200160608152602001606081526020016000151581525090565b828054600181600116156101000203166002900490600052602060002090601f016020900481019282601f1061235c57805160ff191683800117855561238a565b8280016001018555821561238a579182015b8281111561238957825182559160200191906001019061236e565b5b50905061239791906123fa565b5090565b604051806101000160405280600081526020016000815260200160608152602001600073ffffffffffffffffffffffffffffffffffffffff16815260200160001515815260200160001515815260200160008152602001606081525090565b61241c91905b80821115612418576000816000905550600101612400565b5090565b9056fe50726f7669646564206164647265737320697320616c726561647920696e20757365a265627a7a723158205ed2adb991278952fc9916f1e90e140a5d5ed7fcda46601da8d6dc29f92a5aa664736f6c63430005100032",
  "source": "pragma solidity >=0.5.0;\r\nimport \"./External.sol\";\r\nimport \"./CreditX.sol\";\r\n\r\ncontract XUni {\r\n\r\n    External public X;\r\n    CreditX public Y;\r\n\r\n    constructor(address _ExternalAddress, address _CreditXAddress) public {\r\n        X = External(_ExternalAddress);\r\n        Y = CreditX(_CreditXAddress);\r\n        X.initializeXUni(address(this));\r\n        Y.initializeXUni(address(this));\r\n    }\r\n\r\n    uint256 public universityCount = 0;\r\n\r\n    mapping(uint256 => University) public universityByIndex;\r\n\r\n    mapping(address => University) public universityByAddress;\r\n\r\n    uint256 public transferRequestsCount = 0;\r\n\r\n    mapping(uint256 => TransferRequest) public transferRequests;\r\n\r\n    mapping(address => uint256) public universityTransferRequestsCount;\r\n\r\n    mapping(address => mapping(uint256 => TransferRequest)) public universityTransferRequests;\r\n\r\n    struct University {\r\n        uint256 _index;\r\n        address _address;\r\n        string _name;\r\n        string _email;\r\n        bool _active;\r\n    }\r\n\r\n    struct TransferRequest{\r\n        uint256 _index;\r\n        uint256 _uniIndex;\r\n        string _studentName;\r\n        address _universityAddress;\r\n        bool _approval;\r\n        bool _active;\r\n        uint256 _creditCount;\r\n        string _studentId;\r\n    }\r\n\r\n    function isUniversityActive(address _address) view public returns (bool) {\r\n        return universityByAddress[_address]._active;\r\n    }\r\n\r\n    function isApproved(uint256 _trRqIndex) view public returns (bool) {\r\n        return transferRequests[_trRqIndex]._approval;\r\n    }\r\n\r\n    modifier onlyAdmin {\r\n        require(Y.isAdminActive(msg.sender), \"Only Admin can call this\");\r\n        _;\r\n    }\r\n\r\n    modifier checkAddressAvailability(address _address) {\r\n        require(!Y.isAdminActive(_address), \"Provided address is already in use\");\r\n        require(!Y.isStudentActive(_address), \"Provided address is already in use\");\r\n        require(!X.isEmployerActive(_address), \"Provided address is already in use\");\r\n        require(!universityByAddress[_address]._active, \"Provided address is already in use\");\r\n        _;\r\n    }\r\n\r\n    function addUniversity(address _address, string memory _name, string memory _email) public onlyAdmin checkAddressAvailability(_address) {\r\n        University memory university = University(universityCount, _address, _name, _email, true);\r\n        universityByAddress[_address] = university;\r\n        universityByIndex[universityCount] = university;\r\n\r\n        universityCount++;\r\n    }\r\n\r\n    function addTransferRequest(string memory _name, address _universityAddress, uint256 _creditCount, string memory _studentId) public onlyAdmin {\r\n        require(universityByAddress[_universityAddress]._active, \"Invalid University\");\r\n\r\n        TransferRequest memory req = TransferRequest(transferRequestsCount, universityTransferRequestsCount[_universityAddress], _name, _universityAddress, false, true, _creditCount, _studentId);\r\n\r\n        transferRequests[transferRequestsCount] = req;\r\n        universityTransferRequests[_universityAddress][universityTransferRequestsCount[_universityAddress]] = req;\r\n\r\n        transferRequestsCount++;\r\n        universityTransferRequestsCount[_universityAddress]++;\r\n    }\r\n\r\n    function respondTransferRequest(uint256 _uniIndex, bool response) public {\r\n        require(universityByAddress[msg.sender]._active, \"University does not exist\");\r\n        require(universityTransferRequests[msg.sender][_uniIndex]._active, \"Request does not exist\");\r\n\r\n        universityTransferRequests[msg.sender][_uniIndex]._approval = response;\r\n        transferRequests[universityTransferRequests[msg.sender][_uniIndex]._index]._approval = response;\r\n    }\r\n\r\n}\r\n",
  "sourcePath": "D:\\Projects\\CreditX\\contracts\\XUni.sol",
  "compiler": {
    "name": "solc",
    "version": "0.5.16+commit.9c3226ce.Emscripten.clang"
  },
  "schemaVersion": "3.3.3",
  "updatedAt": "2021-01-09T06:04:20.093Z",
  "networkType": "ethereum",
  "devdoc": {
    "methods": {}
  },
  "userdoc": {
    "methods": {}
  }
}